:0200000490006A
:10000000000008246D160090291500902B15009013
:100010002D1500902F150090311500900000000064
:1000200000000000000000000000000033150090F8
:10003000351500900000000037150090391500902C
:10004000BD160090BD160090BD160090BD16009024
:10005000BD160090BD160090BD160090BD16009014
:10006000BD160090BD160090BD160090BD16009004
:10007000BD160090BD160090BD160090BD160090F4
:10008000BD160090BD160090BD160090BD160090E4
:10009000BD160090BD160090BD160090BD160090D4
:1000A000BD160090BD160090BD160090BD160090C4
:1000B000BD160090BD160090BD160090BD160090B4
:1000C000BD160090BD160090BD160090BD160090A4
:1000D000BD16009095580090BD160090BD1600907A
:1000E000BD160090BD16009000000000BD160090E7
:1000F000BD160090BD160090BD160090BD16009074
:10010000BD160090BD160090BD160090BD16009063
:10011000BD160090BD160090BD160090BD16009053
:10012000BD160090BD160090BD160090BD16009043
:10013000BD160090BD160090BD160090BD16009033
:1001400000000000000000000000000000000000AF
:10015000BD160090BD160090BD160090BD16009013
:10016000BD160090BD160090BD160090BD16009003
:10017000BD160090BD160090BD160090BD160090F3
:10018000BD160090BD160090BD160090BD160090E3
:10019000BD160090BD160090BD160090BD160090D3
:1001A000BD160090BD160090BD160090BD160090C3
:1001B000BD160090BD160090BD160090BD160090B3
:1001C000BD160090BD160090BD160090BD160090A3
:1001D000BD160090BD160090BD160090BD16009093
:1001E000BD160090BD160090BD160090BD16009083
:1001F000BD160090BD160090BD160090BD16009073
:10020000BD160090BD160090BD160090BD16009062
:10021000BD160090BD160090BD160090BD16009052
:10022000BD160090BD160090BD16009000000000A5
:10023000BD160090BD16009000000000BD16009095
:10024000BD160090BD160090BD160090BD16009022
:10025000BD160090BD160090BD160090BD16009012
:10026000BD160090BD160090BD160090BD16009002
:10027000BD160090BD160090BD1600900000000055
:10028000BD160090BD160090BD1600900000000045
:0802900000000000BD16009003
:1002C00080F0004002E000BF81F0004142001FBF0B
:1002D0005FEA410392EA030F7FEA226C7FEA236C14
:1002E0006AD04FEA1262D2EB1363C1BFD218414009
:1002F00048404140B8BF5B42192B88BF704710F09F
:10030000004F40F4000020F07F4018BF404211F041
:10031000004F41F4000121F07F4118BF494292EAA9
:10032000030F3FD0A2F1010241FA03FC10EB0C00D5
:10033000C3F1200301FA03F100F0004302D5494262
:1003400060EB4000B0F5000F13D3B0F1807F06D30F
:1003500040084FEA310102F10102FE2A51D2B1F107
:10036000004F40EBC25008BF20F0010040EA0300FC
:100370007047490040EB0000013A28BFB0F5000F7C
:10038000EDD2B0FA80FCACF1080CB2EB0C0200FA32
:100390000CF0AABF00EBC25052421843BCBFD04081
:1003A0001843704792F0000F81F4000106BF80F4FB
:1003B00000000132013BB5E74FEA41037FEA226CBE
:1003C00018BF7FEA236C21D092EA030F04D092F089
:1003D000000F08BF0846704790EA010F1CBF0020BD
:1003E000704712F07F4F04D1400028BF40F000401A
:1003F000704712F100723CBF00F50000704700F03A
:10040000004343F0FE4040F4000070477FEA226260
:1004100016BF08467FEA23630146420206BF5FEA31
:10042000412390EA010F40F4800070474FF0000331
:1004300004E000BF10F0004348BF40425FEA000CF8
:1004400008BF704743F0964301464FF000001CE0A0
:1004500050EA010208BF70474FF000030AE000BFF6
:1004600050EA010208BF704711F0004302D5404234
:1004700061EB41015FEA010C02BF844601460020A6
:1004800043F0B64308BFA3F18053A3F50003BCFAC1
:100490008CF2083AA3EBC25310DB01FA02FC63446E
:1004A00000FA02FCC2F12002BCF1004F20FA02F275
:1004B00043EB020008BF20F00100704702F1200268
:1004C00001FA02FCC2F1200250EA4C0021FA02F2C9
:1004D00043EB020008BF20EADC7070474FF0FF0CCE
:1004E0001CEAD0521EBF1CEAD15392EA0C0F93EAC9
:1004F0000C0F6FD01A4480EA010C400218BF5FEA6B
:1005000041211ED04FF0006343EA501043EA5111DD
:10051000A0FB01310CF00040B1F5000F3EBF4900D7
:1005200041EAD3715B0040EA010062F17F02FD2ADB
:100530001DD8B3F1004F40EBC25008BF20F00100BE
:10054000704790F0000F0CF0004C08BF49024CEAD5
:10055000502040EA51207F3AC2BFD2F1FF0340EA67
:10056000C250704740F400004FF00003013A5DDCD8
:1005700012F1190FDCBF00F000407047C2F1000219
:10058000410021FA02F1C2F1200200FA02FC5FEA06
:10059000310040F1000053EA4C0308BF20EADC7050
:1005A000704792F0000F00F0004C02BF400010F4C2
:1005B000000F013AF9D040EA0C0093F0000F01F06F
:1005C000004C02BF490011F4000F013BF9D041EA91
:1005D0000C018FE70CEAD15392EA0C0F18BF93EA93
:1005E0000C0F0AD030F0004C18BF31F0004CD8D1BD
:1005F00080EA010000F00040704790F0000F17BF44
:1006000090F0004F084691F0000F91F0004F14D089
:1006100092EA0C0F01D142020FD193EA0C0F03D1E1
:100620004B0218BF084608D180EA010000F00040E4
:1006300040F0FE4040F40000704740F0FE4040F4BF
:10064000400070474FF0FF0C1CEAD0521EBF1CEA5E
:10065000D15392EA0C0F93EA0C0F69D0A2EB03027C
:1006600080EA010C49024FEA402037D04FF0805316
:1006700043EA111143EA10130CF000408B4238BFDB
:100680005B0042F17D024FF4000C8B4224BF5B1AE9
:1006900040EA0C00B3EB510F24BFA3EB510340EA37
:1006A0005C00B3EB910F24BFA3EB910340EA9C00E5
:1006B000B3EBD10F24BFA3EBD10340EADC001B0155
:1006C00018BF5FEA1C1CE0D1FD2A3FF650AF8B42F9
:1006D00040EBC25008BF20F0010070470CF0004C06
:1006E0004CEA50207F32C2BFD2F1FF0340EAC25031
:1006F000704740F400004FF00003013A37E792F0F2
:10070000000F00F0004C02BF400010F4000F013A4F
:10071000F9D040EA0C0093F0000F01F0004C02BF4A
:10072000490011F4000F013BF9D041EA0C0195E7B3
:100730000CEAD15392EA0C0F08D142027FF47DAF4C
:1007400093EA0C0F7FF470AF084676E793EA0C0F3C
:1007500004D14B023FF44CAF08466EE730F0004C3A
:1007600018BF31F0004CCAD130F000427FF45CAFCA
:1007700031F000437FF43CAF5FE700BF42000ED290
:10078000B2F1FE4F0BD34FF09E03B3EB126209D4CC
:100790004FEA002343F0004323FA02F070474FF082
:1007A0000000704712F1610F01D1420202D14FF0F7
:1007B000FF3070474FF00000704700BF53B94AB98F
:1007C000002908BF00281CBF4FF0FF314FF0FF3059
:1007D00000F00CB8ADF1080C6DE904CE05F062F83C
:1007E000DDF804E0DDE9022304B07047704700BF84
:1007F00001F0FF01102A2BDB10F0070F08D010F8D2
:10080000013B013A8B422DD010F0070F42B3F6D1D5
:10081000F0B441EA012141EA014122F007047FF0EE
:1008200000070023F0E80256083C85EA010586EA45
:10083000010685FA47F5A3FA87F586FA47F6A5FA81
:1008400087F68EB9EED1F0BC01F0FF0102F007028D
:1008500032B110F8013B013A83EA010313B1F8D138
:100860000020704701387047002D06BF3546033819
:10087000073815F0010F07D1013015F4807F02BF52
:10088000013015F4C03F0130F0BC0138704700BFA3
:10089000844641EA000313F003036DD1403A41D38B
:1008A00051F8043B40F8043B51F8043B40F8043B4A
:1008B00051F8043B40F8043B51F8043B40F8043B3A
:1008C00051F8043B40F8043B51F8043B40F8043B2A
:1008D00051F8043B40F8043B51F8043B40F8043B1A
:1008E00051F8043B40F8043B51F8043B40F8043B0A
:1008F00051F8043B40F8043B51F8043B40F8043BFA
:1009000051F8043B40F8043B51F8043B40F8043BE9
:1009100051F8043B40F8043B51F8043B40F8043BD9
:10092000403ABDD2303211D351F8043B40F8043B79
:1009300051F8043B40F8043B51F8043B40F8043BB9
:1009400051F8043B40F8043B103AEDD20C3205D389
:1009500051F8043B40F8043B043AF9D2043208D081
:10096000D2071CBF11F8013B00F8013B01D30B88F3
:1009700003806046704700BF082A13D38B078DD0D1
:1009800010F003038AD0C3F10403D21ADB071CBFA3
:1009900011F8013B00F8013B80D331F8023B20F80D
:1009A000023B7BE7043AD9D3013A11F8013B00F846
:1009B000013BF9D20B7803704B7843708B788370CE
:1009C00060467047000000000000000000000000CA
:1009D0000000000000000000000000000000000017
:1009E0000000000000000000000000000000000007
:1009F00000000000000000000000000000000000F7
:100A000030B490F800F020F007016FF0000C10F007
:100A1000070491F820F040F048804FF000046FF098
:100A20000700D1E9002391F840F000F1080082FAB4
:100A30004CF2A4FA8CF283FA4CF3A2FA8CF34BBB7F
:100A4000D1E9022382FA4CF200F10800A4FA8CF2F8
:100A500083FA4CF3A2FA8CF3E3B9D1E9042382FAC6
:100A60004CF200F10800A4FA8CF283FA4CF3A2FADB
:100A70008CF37BB9D1E9062301F1200182FA4CF213
:100A800000F10800A4FA8CF283FA4CF3A2FA8CF37A
:100A9000002BC6D0002A04BF04301A4612BAB2FA9C
:100AA00082F200EBD20030BC7047D1E9002304F0A1
:100AB0000305C4F100004FEAC50514F0040F91F8D6
:100AC00040F00CFA05F562EA05021CBF63EA050373
:100AD00062464FF00004AAE781F0004102E000BF47
:100AE00083F0004330B54FEA41044FEA430594EAEE
:100AF000050F08BF90EA020F1FBF54EA000C55EA29
:100B0000020C7FEA645C7FEA655C00F0E2804FEAF9
:100B10005454D4EB5555B8BF6D420CDD2C4480EADB
:100B2000020281EA030382EA000083EA010180EA0B
:100B3000020281EA0303362D88BF30BD11F0004F59
:100B40004FEA01314FF4801C4CEA113102D040428F
:100B500061EB410113F0004F4FEA03334CEA1333CA
:100B600002D0524263EB430394EA050F00F0A780E2
:100B7000A4F10104D5F1200E0DDB02FA0EFC22FADD
:100B800005F2801841F1000103FA0EF2801843FAD1
:100B900005F359410EE0A5F120050EF1200E012AC2
:100BA00003FA0EFC28BF4CF0020C43FA05F3C01800
:100BB00051EBE37101F0004507D54FF0000EDCF179
:100BC000000C7EEB00006EEB0101B1F5801F1BD322
:100BD000B1F5001F0CD349085FEA30004FEA3C0C26
:100BE00004F101044FEA445212F5800F80F09A801C
:100BF000BCF1004F08BF5FEA500C50F1000041EB20
:100C0000045141EA050130BD5FEA4C0C404141EB23
:100C10000101013C28BFB1F5801FE9D291F0000F1E
:100C200004BF01460020B1FA81F308BF2033A3F1CD
:100C30000B03B3F120020CDA0C3208DD02F1140CC4
:100C4000C2F10C0201FA0CF021FA02F10CE002F1FF
:100C50001402D8BFC2F1200C01FA02F120FA0CFCF8
:100C6000DCBF41EA0C019040E41AA2BF01EB045141
:100C7000294330BD6FEA04041F3C1CDA0C340EDC3F
:100C800004F11404C4F1200220FA04F001FA02F382
:100C900040EA030021FA04F345EA030130BDC4F140
:100CA0000C04C4F1200220FA02F001FA04F340EA35
:100CB0000300294630BD21FA04F0294630BD94F0E6
:100CC000000F83F4801306BF81F480110134013DCD
:100CD0004EE77FEA645C18BF7FEA655C29D094EA3E
:100CE000050F08BF90EA020F05D054EA000C04BFBC
:100CF0001946104630BD91EA030F1EBF00210020A7
:100D000030BD5FEA545C05D14000494128BF41F045
:100D1000004130BD14F580043CBF01F5801130BDA9
:100D200001F0004545F0FE4141F470014FF0000034
:100D300030BD7FEA645C1ABF194610467FEA655CE5
:100D40001CBF0B46024650EA013406BF52EA033587
:100D500091EA030F41F4002130BD00BF90F0000F75
:100D600004BF0021704730B54FF4806404F13204B1
:100D70004FF000054FF0000150E700BF90F0000F6A
:100D800004BF0021704730B54FF4806404F1320491
:100D900010F0004548BF40424FF000013EE700BF61
:100DA00042004FEAE2014FEA31014FEA02701FBFF1
:100DB00012F07F4393F07F4F81F06051704732F023
:100DC0007F4208BF704793F07F4F04BF41F400217A
:100DD000704730B54FF4607401F0004521F00041D8
:100DE0001CE700BF50EA010208BF704730B54FF062
:100DF00000050AE050EA010208BF704730B511F063
:100E0000004502D5404261EB41014FF4806404F19A
:100E100032045FEA915C3FF4D8AE4FF003025FEA20
:100E2000DC0C18BF03325FEADC0C18BF033202EBA4
:100E3000DC02C2F1200300FA03FC20FA02F001FAFE
:100E400003FE40EA0E0021FA02F11444BDE600BFA1
:100E500070B54FF0FF0C4CF4E06C1CEA11541DBF50
:100E60001CEA135594EA0C0F95EA0C0F00F0DEF81B
:100E70002C4481EA030621EA4C5123EA4C5350EA00
:100E8000013518BF52EA033541F4801143F4801351
:100E900038D0A0FB02CE4FF00005E1FB02E506F0E2
:100EA0000042E0FB03E54FF00006E1FB03569CF037
:100EB000000F18BF4EF0010EA4F1FF04B6F5007F3D
:100EC00064F5407404D25FEA4E0E6D4146EB0606AF
:100ED00042EAC62141EA55514FEAC52040EA5E5038
:100EE0004FEACE2EB4F1FD0C88BFBCF5E06F1ED8E2
:100EF000BEF1004F08BF5FEA500E50F1000041EB19
:100F0000045170BD06F0004646EA010140EA0200C5
:100F100081EA0301B4EB5C04C2BFD4EB0C0541EAE7
:100F2000045170BD41F480114FF0000E013C00F3FC
:100F3000AB8014F1360FDEBF002001F0004170BD20
:100F4000C4F10004203C35DA0C341BDC04F1140439
:100F5000C4F1200500FA05F320FA04F001FA05F2C5
:100F600040EA020001F0004221F0004110EBD37092
:100F700021FA04F642EB06015EEA430E08BF20EABE
:100F8000D37070BDC4F10C04C4F1200500FA04F361
:100F900020FA05F001FA04F240EA020001F00041F3
:100FA00010EBD37041F100015EEA430E08BF20EA66
:100FB000D37070BDC4F1200500FA05F24EEA020EAE
:100FC00020FA04F301FA05F243EA020321FA04F0DD
:100FD00001F0004121FA04F220EA020000EBD37094
:100FE0005EEA430E08BF20EAD37070BD94F0000F94
:100FF0000FD101F00046400041EB010111F4801FC8
:1010000008BF013CF7D041EA060195F0000F18BF78
:10101000704703F00046520043EB030313F4801FB4
:1010200008BF013DF7D043EA0603704794EA0C0F6E
:101030000CEA135518BF95EA0C0F0CD050EA410684
:1010400018BF52EA4306D1D181EA030101F0004101
:101050004FF0000070BD50EA410606BF1046194629
:1010600052EA430619D094EA0C0F02D150EA013635
:1010700013D195EA0C0F05D152EA03361CBF104676
:1010800019460AD181EA030101F0004141F0FE4115
:1010900041F470014FF0000070BD41F0FE4141F499
:1010A000780170BD70B54FF0FF0C4CF4E06C1CEA99
:1010B00011541DBF1CEA135594EA0C0F95EA0C0F4E
:1010C00000F0A7F8A4EB050481EA030E52EA033509
:1010D0004FEA013100F088804FEA03334FF080552A
:1010E00045EA131343EA12634FEA022245EA111557
:1010F00045EA10654FEA00260EF000419D4208BF08
:10110000964244F1FD0404F5407402D25B084FEAB4
:101110003202B61A65EB03055B084FEA32024FF460
:1011200080104FF4002CB6EB020E75EB030E22BFBD
:10113000B61A754640EA0C005B084FEA3202B6EB7D
:10114000020E75EB030E22BFB61A754640EA5C002C
:101150005B084FEA3202B6EB020E75EB030E22BFBC
:10116000B61A754640EA9C005B084FEA3202B6EBBD
:10117000020E75EB030E22BFB61A754640EADC007C
:1011800055EA060E18D04FEA051545EA16754FEADE
:1011900006164FEAC30343EA52734FEAC2025FEAFC
:1011A0001C1CC0D111F4801F0BD141EA00014FF08B
:1011B00000004FF0004CB6E711F4801F04BF01435C
:1011C0000020B4F1FD0C88BFBCF5E06F3FF6AFAE78
:1011D000B5EB030C04BFB6EB020C5FEA500C50F108
:1011E000000041EB045170BD0EF0004E4EEA11318B
:1011F00014EB5C04C2BFD4EB0C0541EA045170BD92
:1012000041F480114FF0000E013C90E645EA060ED5
:101210008DE60CEA135594EA0C0F08BF95EA0C0F03
:101220003FF43BAF94EA0C0F0AD150EA01347FF44B
:1012300034AF95EA0C0F7FF425AF104619462CE722
:1012400095EA0C0F06D152EA03353FF4FDAE104685
:10125000194622E750EA410618BF52EA43067FF4D6
:10126000C5AE50EA41047FF40DAF52EA43057FF466
:10127000EBAE12E74FF0FF3C06E000BF4FF0010C71
:1012800002E000BF4FF0010C4DF804CD4FEA410CD5
:101290007FEA6C5C4FEA430C18BF7FEA6C5C1BD0A2
:1012A00001B050EA410C0CBF52EA430C91EA030F23
:1012B00002BF90EA020F0020704710F1000F91EA80
:1012C000030F58BF994208BF90422CBFD8176FEA4E
:1012D000E37040F0010070474FEA410C7FEA6C5C1C
:1012E00002D150EA013C07D14FEA430C7FEA6C5C23
:1012F000D6D152EA033CD3D05DF8040B704700BF4F
:101300008446104662468C461946634600E000BF9C
:1013100001B5FFF7B7FF002848BF10F1000F01BD6E
:101320004DF808EDFFF7F4FF0CBF012000205DF839
:1013300008FB00BF4DF808EDFFF7EAFF34BF0120BE
:1013400000205DF808FB00BF4DF808EDFFF7E0FF57
:1013500094BF012000205DF808FB00BF4DF808EDA8
:10136000FFF7CEFF94BF012000205DF808FB00BF0F
:101370004DF808EDFFF7C4FF34BF012000205DF8F1
:1013800008FB00BF4FEA410C7FEA6C5C02D150EAD7
:10139000013C0AD14FEA430C7FEA6C5C02D152EA6D
:1013A000033C02D14FF0000070474FF0010070473E
:1013B0004FEA410212F5001215D211D56FF478737D
:1013C000B3EB625212D94FEAC12343F0004343EA20
:1013D000505311F0004F23FA02F018BF40427047FB
:1013E0004FF00000704750EA013005D111F0004085
:1013F00008BF6FF0004070474FF00000704700BF1B
:101400000348044B834202D0034B03B11847704793
:10141000E4060024E4060024000000000548064B12
:101420001B1AD90F01EBA301491002D0034B03B1E2
:1014300018477047E4060024E4060024000000007A
:1014400010B5064C237843B9FFF7DAFF044B13B10C
:101450000448AFF300800123237010BDE40600248C
:101460000000000090BD009008B5054B1BB1054978
:101470000548AFF30080BDE80840FFF7CFBF00BFCD
:1014800000000000E806002490BD009008B504F0BC
:1014900067F862B6002383F3108800F095F90423FF
:1014A00002221146F02004F0B5F84FF4F07003F07A
:1014B000BBFF4FF4E13004F039F90F4803F0E0FFCF
:1014C00000F0FEF801F09AF901460C4804F038FCEF
:1014D0000B4C01221021204600F02AFE4FF4FA7036
:1014E00003F0C6FF00221021204600F021FE4FF439
:1014F000FA7003F0BDFFEBE710070024A8BD0090D1
:101500000004025882B0074BD3F8F42042F00202E4
:10151000C3F8F420D3F8F43003F002030193019BE5
:1015200002B0704700440258FEE7FEE7FEE7FEE720
:10153000FEE770477047704708B500F073F908BDC3
:101540000120704708B504F0CFFD162303604FF06B
:10155000FF3008BD08B54FF0FF31FFF7F3FFFEE79E
:1015600010B503460C4A0D490D48006840B10C48BF
:1015700000680344521A934206D8094A136010BD0A
:101580000748084C0460F2E704F0AEFD0C2303604A
:101590004FF0FF30F3E700BF000008240004000014
:1015A00000070024880B0024264B1B6803F00F0360
:1015B000062B06D8234A136823F00F0343F00703D2
:1015C0001360214B1A6842F001021A6000221A616E
:1015D00019681E4A0A401A601A4B1B6813F0080F5C
:1015E00006D0184A136823F00F0343F00703136073
:1015F000154B00229A61DA611A6215499962154900
:10160000D962154919635A639963DA6319645A6494
:10161000196821F4802119601A66104B1B686FF35A
:101620000F03B3F1005F03D20D4B0122C3F8082171
:101630000C4B43F2D2021A600B4B4FF010429A60EF
:10164000704700BF00200052004402587FEDF6EAC8
:10165000000202020000FF01800201010010005C94
:10166000008000510040005200ED00E0DFF834D06F
:10167000FFF79AFF0C480D490D4A002302E0D458A9
:10168000C4500433C4188C42F9D30A4A0A4C0023CC
:1016900001E013600432A242FBD304F02BFDFFF7FC
:1016A000F5FE70470000082400000024E406002432
:1016B000E0C10090E4060024840B0024FEE7000053
:1016C0002DE9F04389B0294BD3F8E02042F0020223
:1016D000C3F8E020D3F8E02002F002020092009A62
:1016E000D3F8E02042F01002C3F8E020D3F8E02065
:1016F00002F010020192019AD3F8E02042F01002A9
:10170000C3F8E020D3F8E03003F010030293029B0B
:101710004FF01009CDF80C90012404940594069420
:10172000DFF84C8003A9404600F0EEFB402703970A
:10173000104D03A9284600F0E7FB2026039603A9D5
:10174000284600F0E1FB22464946404600F0F0FC06
:1017500022463946284600F0EBFC22463146284610
:1017600000F0E6FC09B0BDE8F08300BF0044025879
:101770000004025800100258104B1B780BB90120CE
:10178000704710B504464FF47A70B0FBF3F30C4A7F
:101790001068B0FBF3F000F0CBF868B90F2C01D95A
:1017A00001200AE0002221464FF0FF3000F0ACF8A3
:1017B000044B1C60002000E0012010BD0800002444
:1017C000040000240C00002410B5032000F08AF867
:1017D00001F014F80F498B69C3F303230E4AD35C5D
:1017E00003F01F03D8408B6903F00F03D35C03F0B1
:1017F0001F0320FA03F3094A1360094B18600F20F6
:10180000FFF7BAFF10B10124204610BD0446FFF7D0
:1018100079FEF9E70044025860BF00900000002400
:1018200004000024034B1B78034A11680B44136027
:10183000704700BF0800002404070024014B18680B
:10184000704700BF04070024014B1868000C704764
:101850000010005C024A136A43F0010313627047F0
:1018600000040058002807DB00F01F024009012394
:101870009340024A42F82030704700BF00E100E088
:10188000002804DB0901C9B2044B1954704700F069
:101890000F000901C9B2024B1954704700E400E07F
:1018A00014ED00E000B500F00700C0F1070CBCF13A
:1018B000040F28BF4FF0040C031D062B0FD9C31EC5
:1018C0004FF0FF3E0EFA0CF021EA000199400EFAAB
:1018D00003FE22EA0E0241EA02005DF804FB002347
:1018E000EEE700000649CB6823F4E0631B041B0C01
:1018F000000200F4E0600343024A1A43CA607047E2
:1019000000ED00E00000FA0510B50446054BD8686C
:10191000C0F30220FFF7C6FF01462046FFF7B0FFE5
:1019200010BD00BF00ED00E008B5FFF79BFF08BD4C
:101930000138B0F1807F0BD24FF0E0235861054AA7
:10194000F02182F823100020986107221A61704765
:101950000120704700ED00E070B50446FFF76EFF10
:10196000002C00F09181054694F83530DBB2022B53
:1019700006D080236365002384F83430012070BDD5
:1019800023688C498C4A934218BF8B4230D018325E
:1019900093422DD0183293422AD01832934227D046
:1019A0001832934224D01832934221D018329342F5
:1019B0001ED002F5567293421AD01832934217D0B5
:1019C0001832934214D01832934211D018329342F5
:1019D0000ED0183293420BD01832934208D01832EE
:1019E000934205D01A6822F00E021A60266809E0B8
:1019F0001A6822F01E021A602268536923F08003DD
:101A00005361266823686B496B4A934218BF8B4227
:101A100042D0183293423FD0183293423CD0183211
:101A2000934239D01832934236D01832934233D091
:101A30001832934230D002F5567293422CD01832AD
:101A4000934229D01832934226D01832934223D0A1
:101A50001832934220D0183293421DD0183293424C
:101A60001AD01832934217D0544A934214D01432E9
:101A7000934211D0143293420ED0143293420BD0C1
:101A80001432934208D01432934205D01432934258
:101A900002D01432934204D1226E136823F480736F
:101AA000136023684349444A934218BF8B422FD0A6
:101AB000183293422CD01832934229D018329342D4
:101AC00026D01832934223D01832934220D01832B5
:101AD00093421DD002F55672934219D018329342A8
:101AE00016D01832934213D01832934210D01832C5
:101AF00093420DD0183293420AD01832934207D045
:101B00001832934204D01A6822F001021A6003E0EE
:101B10001A6822F001021A60336813F0010F0ED028
:101B2000FFF78CFE431B052BF6D9202363650323A7
:101B300084F83530002384F8343001201FE723680F
:101B40001C491D4A934218BF8B4239D01832934228
:101B500036D01832934233D01832934230D01832F4
:101B600093422DD0183293422AD01832934227D074
:101B700002F55672934223D01832934220D0183285
:101B800093421DD0183293421AD01832934217D084
:101B90001832934214D01832934211D01832934223
:101BA0000ED0A16DE36D03F01F02012393404B6043
:101BB0000DE000BF10000240280002400854025807
:101BC000A16DE36D03F01F023F2393408B602368F8
:101BD0002E492F4A934218BF8B4242D0183293426B
:101BE0003FD0183293423CD01832934239D0183249
:101BF000934236D01832934233D01832934230D0C9
:101C000002F5567293422CD01832934229D01832E2
:101C1000934226D01832934223D01832934220D0D8
:101C2000183293421DD0183293421AD01832934280
:101C300017D0184A934214D01432934211D0143260
:101C400093420ED0143293420BD01432934208D0F8
:101C50001432934205D01432934202D0143293428C
:101C60000BD1636EA26E5A60E36E33B11A6822F430
:101C700080721A60236F626F5A60012384F83530D6
:101C8000002084F834007AE6012078E61000024053
:101C90002800024008540258002800F0288108B5A6
:101CA000024690F83530DBB2022B03D08023436527
:101CB000012008BD0368904890498B4218BF8342B9
:101CC0000CBF0120002065D018318B4262D0183142
:101CD0008B425FD018318B425CD018318B4259D087
:101CE00018318B4256D018318B4253D001F55671C2
:101CF0008B424FD018318B424CD018318B4249D097
:101D000018318B4246D018318B4243D018318B4268
:101D100040D018318B423DD018318B423AD01968EF
:101D200021F00E0119601368734874498B4218BF83
:101D300083426AD072498B4267D018318B4264D09B
:101D400018318B4261D018318B425ED018318B42F2
:101D50005BD018318B4258D001F556718B4254D06C
:101D600018318B4251D018318B424ED018318B42F2
:101D70004BD018318B4248D018318B4245D01831A6
:101D80008B4242D018318B423FD0196821F00101BB
:101D900019603EE0042182F8351080BB584A934216
:101DA0002DD0183293422AD01832934227D01832BD
:101DB000934224D01832934221D0183293421ED03D
:101DC00002F5567293421AD01832934217D0183245
:101DD000934214D01832934211D0183293420ED04D
:101DE000183293420BD01832934208D018329342E3
:101DF00005D01A6822F001021A60002059E71A681B
:101E000022F001021A60002053E7196821F0010155
:101E100019601368384839498B4218BF834242D051
:101E200018318B423FD018318B423CD018318B4255
:101E300039D018318B4236D018318B4233D018311B
:101E40008B4230D001F556718B422CD018318B4229
:101E500029D018318B4226D018318B4223D018312B
:101E60008B4220D018318B421DD018318B421AD0B2
:101E700018318B4217D023498B4214D014318B4236
:101E800011D014318B420ED014318B420BD014314F
:101E90008B4208D014318B4205D014318B4202D0D2
:101EA00014318B4217D1116E0B6823F480730B60D1
:101EB000906DD36D03F01F0101238B404360536E7F
:101EC000916E5960D36E33B1196821F48071196035
:101ED000136F516F5960012382F83530002382F867
:101EE0003430136D2BB1104698470020E1E60120F5
:101EF00070470020DDE600BF1000024028000240CD
:101F0000400002400854025870B582B000236EE0D1
:101F100085685E000324B44025EA0405CC68B4401B
:101F20002C438460456825EA0C054C68C4F3001412
:101F30009C402C4344606DE0DD08083550F8254096
:101F400003F0070C4FEA8C0C4FF00F0E0EFA0CFE4C
:101F500024EA0E0E0C6904FA0CF444EA0E0440F86C
:101F600025406FE0092400E0002404FA0EF42C431D
:101F70000CF1020C6B4D45F82C404FF0B044256835
:101F8000D44325EA0206D1F804C01CF4801F01D016
:101F900042EA05064FF0B0452E606D6804EA05067A
:101FA000D1F804C01CF4001F01D042EA05064FF02E
:101FB000B0456E60D5F8845004EA0506D1F804C037
:101FC0001CF4003F01D042EA05064FF0B045C5F8C9
:101FD0008460D5F880502C404E6816F4803F01D0C4
:101FE00042EA05044FF0B042C2F8804001330A686B
:101FF00032FA03F400F093804FF0010C0CFA03FC6A
:102000001CEA0202F2D04C6804F00304013C012CEB
:102010007FF67EAF4C6804F00304032C0CD0C46838
:102020005D004FF0030C0CFA05FC24EA0C0C8C68E4
:10203000AC4044EA0C04C4604C6804F00304022C75
:102040003FF47AAF04684FEA430E4FF0030C0CFAEA
:102050000EFC24EA0C0C4C6804F0030404FA0EF4A1
:1020600044EA0C0404604C6814F4403FBED02E4C8B
:10207000D4F8F45045F00205C4F8F450D4F8F44014
:1020800004F002040194019C4FEA930C0CF1020548
:10209000244C54F8255003F0030E4FEA8E0E0F2403
:1020A00004FA0EF425EA0405204CA0423FF45CAF8C
:1020B00004F58064A04222D004F58064A04220D0C0
:1020C00004F58064A0421ED004F58064A0421CD0B8
:1020D00004F58064A0421AD004F58064A04218D0B0
:1020E00004F58064A04216D004F58064A04214D0A8
:1020F00004F58064A0423FF435AF0A2435E701249B
:1021000033E7022431E703242FE704242DE70524D5
:102110002BE7062429E7072427E7082425E702B050
:1021200070BD00BF0004005800440258000002586F
:102130000AB181617047090481617047024AD3681E
:1021400043F08073D360704700480258002800F0C5
:10215000398338B50446036813F0010F25D0944A3B
:10216000136903F03803926A102B15D0182B0FD087
:102170006368B3F5803F3FD0002B53D18C4B1A6876
:1021800022F480321A601A6822F480221A6038E041
:1021900002F00302022AEBD1854B1B6813F4003FC7
:1021A00003D06368002B00F00F83236813F0020F45
:1021B00000F0A1807E4A1369926A13F038035AD066
:1021C000182B55D0E368002B00F0DE8078490A68B0
:1021D00022F0190213430B60FFF730FB0546744BE6
:1021E0001B6813F0040F40F0AD80FFF727FB401B86
:1021F0000228F4D90320EEE26D4A136843F48033D9
:10220000136063682BB3FFF719FB0546684B1B6827
:1022100013F4003FC9D1FFF711FB401B6428F5D927
:102220000320D8E2B3F5A02F09D0614B1A6822F43D
:1022300080321A601A6822F480221A60E1E75C4B4F
:102240001A6842F480221A601A6842F480321A60D6
:10225000D7E7FFF7F3FA0546554B1B6813F4003F29
:10226000A3D0FFF7EBFA401B6428F5D90320B2E2B4
:1022700012F0030FA6D14E4B1B6813F0040F03D0CE
:10228000E368002B00F0A282494A136823F0190387
:10229000E1680B431360FFF7D1FA0546444B1B6816
:1022A00013F0040F06D1FFF7C9FA401B0228F5D935
:1022B000032090E2FFF7C8FA41F20303984212D8D4
:1022C0002269402A07D03A494B6823F47C3343EA19
:1022D00002334B600FE0364A536823F47C3343F4F7
:1022E0000033536007E0324A536823F0FE4321690C
:1022F00043EA01635360236813F0100F00F08880F5
:102300002B4A136903F03803926A082B56D0182B16
:1023100050D0E369002B00F0B880254A136843F0E1
:1023200080031360FFF78AFA0546214B1B6813F4FC
:10233000807F40F08880FFF781FA401B0228F4D9A3
:10234000032048E2FFF780FA41F20303984212D8D3
:102350002269402A07D016494B6823F47C3343EAAC
:1023600002334B60C7E7124A536823F47C3343F4CB
:1023700000335360BFE70E4A536823F0FE432169E0
:1023800043EA01635360B6E7094A136823F0010387
:102390001360FFF753FA0546054B1B6813F0040F53
:1023A000A9D0FFF74BFA401B0228F5D9032012E20F
:1023B0000044025802F00302012AAAD1A14B1B6873
:1023C00013F4807F03D0E369802B40F00182FFF794
:1023D0003BFA41F20303984212D8226A202A07D01E
:1023E00098494B6823F0F84343EA82634B600FE05F
:1023F000944A536823F0F84343F08043536007E066
:10240000904AD36823F07C53216A43EA0163D36086
:10241000236813F0080F60D06369002B49D0894A04
:10242000536F43F001035367FFF708FA0546854BE6
:102430005B6F13F0020F50D1FFF700FA401B022828
:10244000F5D90320C7E1FFF7FFF941F203039842F2
:1024500012D8226A202A07D07A494B6823F0F84321
:1024600043EA82634B60D3E7764A536823F0F8432C
:1024700043F080435360CBE7724AD36823F07C5328
:10248000216A43EA0163D360C2E76E4A136823F00E
:1024900080031360FFF7D2F905466A4B1B6813F4FB
:1024A000807FB5D0FFF7CAF9401B0228F5D9032079
:1024B00091E1644A536F23F001035367FFF7BEF9BC
:1024C0000546604B5B6F13F0020F06D0FFF7B6F9BD
:1024D000401B0228F5D903207DE1236813F0200F6B
:1024E00029D0A3699BB1574A136843F48053136002
:1024F000FFF7A4F90546534B1B6813F4005F1AD18C
:10250000FFF79CF9401B0228F5D9032063E14D4AEF
:10251000136823F480531360FFF790F90546494B85
:102520001B6813F4005F06D0FFF788F9401B0228F0
:10253000F5D903204FE1236813F0040F21D1636A1A
:10254000002B00F047813F4A126902F03802182A36
:1025500000F0EE80022B79D03A4A136823F08073A2
:102560001360FFF76BF90446364B1B6813F0007FCE
:1025700000F0DC80FFF762F9001B0228F4D9032089
:1025800029E1314A136843F480731360FFF756F969
:1025900005462D4B1B6813F4807F06D1FFF74EF9DB
:1025A000401B6428F5D9032015E1A368012B0AD04C
:1025B0000BBB244B1A6F22F001021A671A6F22F02C
:1025C00004021A6704E01F4A136F43F00103136704
:1025D000A36833B3FFF732F905461A4B1B6F13F0AC
:1025E000020FACD1FFF72AF9401B41F28833984221
:1025F000F3D90320EFE0052B09D0124B1A6F22F01C
:1026000001021A671A6F22F004021A67E0E70D4B05
:102610001A6F42F004021A671A6F42F001021A6739
:10262000D6E7FFF70BF90546064B1B6F13F0020FB9
:1026300085D0FFF703F9401B41F288339842F3D964
:102640000320C8E00044025800480258694A136851
:1026500023F080731360FFF7F1F80546654B1B68A4
:1026600013F0007F06D0FFF7E9F8401B0228F5D9E8
:102670000320B0E05F4B996A5F4A0A40A16AE06AB2
:1026800041EA00110A439A62226B013AC2F308023E
:10269000616B0139490289B20A43A16B013909040E
:1026A00001F4FE010A43E16B0139090601F0FE4124
:1026B0000A431A63DA6A22F00102DA625A6B6FF394
:1026C000CF02A16C42EAC1025A63DA6A22F00C021C
:1026D000216C0A43DA62DA6A22F00202616C0A4370
:1026E000DA62DA6A42F48032DA62DA6A42F400329A
:1026F000DA62DA6A42F48022DA62DA6A42F00102CD
:10270000DA621A6842F080721A60FFF797F804469E
:10271000384B1B6813F0007F06D1FFF78FF8001BC2
:102720000228F5D9032056E0002054E0002052E0B2
:10273000304A916A106B012B4ED001F00303A26A5C
:1027400093424BD1C1F30511E36A994248D1C0F3DA
:102750000802236B013B9A4244D1C0F34622636BCB
:10276000013B9A4240D1C0F30642A36B013B9A421F
:102770003CD1C0F30660E36B013B984238D11D4B5E
:102780005B6BC3F3CC03A26C9A4201D1002022E020
:10279000184AD36A23F00103D362FFF74FF80546C6
:1027A000FFF74CF8A842FBD0124A536B6FF3CF03EC
:1027B000A16C43EAC1035363D36A43F00103D362BC
:1027C000002008E001207047012004E0012002E021
:1027D000012000E0002038BD0120FCE70120FAE7DD
:1027E0000120F8E70120F6E70120F4E70120F2E7F5
:1027F0000120F0E7004402580CFCFFFFF8B5814BC4
:102800001B6903F03803102B00F0F480182B0FD055
:10281000002B40F0F2807B4B1B6813F0200F00F080
:10282000EE80784B1B68C3F3C103774CDC40E2E0D9
:10283000744B9D6A05F003059C6AC4F30514D86ABD
:1028400000F001005B6BC3F3CC0303FB00F0FDF76A
:10285000EDFD0646002C00F0CE80012D56D0022D55
:1028600000F08480002D40F0A380664B1B6813F0BD
:10287000200F29D0634F3B68C3F3C1036248D8409F
:10288000FDF7D4FD05462046FDF7D0FD014628465C
:10289000FDF7D8FE0446386BC0F30800FDF7C6FD0F
:1028A00005464FF064513046FDF718FE01462846B4
:1028B000FDF70CFD4FF07E51FDF708FD0146204667
:1028C000FDF70CFE044642E02046FDF7AFFD014651
:1028D0004E48FDF7B7FE04464A4B186BC0F308009C
:1028E000FDF7A4FD05464FF064513046FDF7F6FDB7
:1028F00001462846FDF7EAFC4FF07E51FDF7E6FC65
:1029000001462046FDF7EAFD044620E02046FDF79B
:102910008DFD01463E48FDF795FE0446394B186B88
:10292000C0F30800FDF782FD05464FF064513046C4
:10293000FDF7D4FD01462846FDF7C8FC4FF07E5157
:10294000FDF7C4FC01462046FDF7C8FD04462D4BAB
:102950001B6BC3F34623581CFDF768FD0146204658
:10296000FDF770FEFDF70AFF044644E02046FDF740
:102970005DFD01462748FDF765FE0446214B186BB7
:10298000C0F30800FDF752FD05464FF06451304694
:10299000FDF7A4FD01462846FDF798FC4FF07E5157
:1029A000FDF794FC01462046FDF798FD0446CEE76E
:1029B0002046FDF73BFD01461548FDF743FE044662
:1029C000104B186BC0F30800FDF730FD05464FF0C3
:1029D00064513046FDF782FD01462846FDF776FC3E
:1029E0004FF07E51FDF772FC01462046FDF776FD63
:1029F0000446ACE7084C2046F8BD084CFBE7024C07
:102A0000F9E700BF004402580090D0030024744C42
:102A10000024744A0024F44A00127A0000093D00A0
:102A2000002800F0328170B50D4604469B4B1B68B0
:102A300003F00F038B420BD2984A136823F00F0365
:102A40000B431360136803F00F038B4240F01F81A8
:102A5000236813F0040F0CD02269914B9B6903F09B
:102A600070039A4205D98E498B6923F070031A438B
:102A70008A61236813F0080F0CD06269884BDB6908
:102A800003F070039A4205D98549CB6923F070039E
:102A90001A43CA61236813F0100F0CD0A269804B4F
:102AA000DB6903F4E0639A4205D97D49CB6923F4DD
:102AB000E0631A43CA61236813F0200F0CD0E26967
:102AC000774B1B6A03F070039A4205D974490B6A6D
:102AD00023F070031A430A62236813F0020F0CD02C
:102AE000E2686F4B9B6903F00F039A4205D96C496A
:102AF0008B6923F00F031A438A61236813F0010FD7
:102B000041D0674A936923F47063A1680B439361D2
:102B10006368022B0AD0032B27D0012B2CD0604AEC
:102B2000126812F0040F06D10120ADE0126812F411
:102B3000003F00F0AE805A490A6922F007021343B1
:102B40000B61FEF77BFE0646554B1B6903F038030D
:102B50006268B3EBC20F16D0FEF770FE801B41F225
:102B600088339842F0D903208EE04D4A126812F063
:102B7000007FE0D1012087E0494A126812F4807F8B
:102B8000D9D1012080E0236813F0020F0CD0E26855
:102B9000434B9B6903F00F039A4205D240498B696E
:102BA00023F00F031A438A613C4B1B6803F00F03A9
:102BB000AB420AD9394A136823F00F032B43136041
:102BC000136803F00F03AB4265D1236813F0040FC1
:102BD0000CD02269324B9B6903F070039A4205D2F4
:102BE0002F498B6923F070031A438A61236813F01D
:102BF000080F0CD062692A4BDB6903F070039A421C
:102C000005D22749CB6923F070031A43CA612368B0
:102C100013F0100F0CD0A269214BDB6903F4E063C1
:102C20009A4205D21E49CB6923F4E0631A43CA6174
:102C3000236813F0200F0CD0E269194B1B6A03F0D4
:102C400070039A4205D216490B6A23F070031A43A7
:102C50000A62FFF7D3FD12498B69C3F30323114ABC
:102C6000D35C03F01F03D8408B6903F00F03D35CE0
:102C700003F01F0320FA03F30B4A13600B4B186099
:102C80000B4B1868FEF778FD70BD012070470120DE
:102C9000FAE70120F8E70120F6E700BF0020005224
:102CA0000044025860BF009000000024040000248B
:102CB0000C00002408B5FFF7A1FD0B4A9369C3F38C
:102CC00003230A49CB5C03F01F0320FA03F3926944
:102CD00002F00F02885C00F01F0023FA00F0044AA3
:102CE0001060044A136008BD0044025860BF0090A1
:102CF000000000240400002408B5FFF7DBFF054BAB
:102D0000DB69C3F30213044AD35C03F01F03D8400A
:102D100008BD00BF0044025860BF009008B5FFF72F
:102D2000C9FF054BDB69C3F30223044AD35C03F0FC
:102D30001F03D84008BD00BF0044025860BF009088
:102D4000404B9B6A03F00303032B79D070B5054613
:102D50000E463C4A136823F080631360FEF76EFD55
:102D60000446384B1B6813F0006F06D0FEF766FD73
:102D7000031B022BF5D9032070BD324B9A6A22F453
:102D80007C32296842EA01329A626A68013AC2F3E7
:102D90000802A9680139490289B20A43E968013980
:102DA000090401F4FE010A4329690139090601F009
:102DB000FE410A439A63DA6A22F0C00269690A4353
:102DC000DA62DA6A22F02002A9690A43DA62DA6A70
:102DD00022F01002DA62DA6B6FF3CF02E96942EA9D
:102DE000C102DA63DA6A42F01002DA62C6B91A4640
:102DF000DB6A43F40023D362124A136843F0806312
:102E00001360FEF71BFD04460E4B1B6813F0006FAA
:102E100014D1FEF713FD001B0228F5D90320ABE700
:102E2000012E05D0074AD36A43F40013D362E3E7C7
:102E3000044AD36A43F48013D362DDE700209BE7A2
:102E40000120704700440258404B9B6A03F0030383
:102E5000032B79D070B505460E463C4A136823F023
:102E600080531360FEF7EAFC0446384B1B6813F0EE
:102E7000005F06D0FEF7E2FC031B022BF5D903200E
:102E800070BD324B9A6A22F07C72296842EA015284
:102E90009A626A68013AC2F30802A96801394902D4
:102EA00089B20A43E9680139090401F4FE010A43C1
:102EB00029690139090601F0FE410A431A64DA6AF8
:102EC00022F4406269690A43DA62DA6A22F4007223
:102ED000A9690A43DA62DA6A22F48072DA625A6C09
:102EE0006FF3CF02E96942EAC1025A64DA6A42F436
:102EF0008072DA62C6B91A46DB6A43F48003D36291
:102F0000124A136843F080531360FEF797FC04469F
:102F10000E4B1B6813F0005F14D1FEF78FFC001BF3
:102F20000228F5D90320ABE7012E05D0074AD36A62
:102F300043F08073D362E3E7044AD36A43F40003A7
:102F4000D362DDE700209BE7012070470044025870
:102F5000F8B50446036813F0006F30D0836EB3F504
:102F6000001F26D00ED8ABB1B3F5801F07D10221C8
:102F70000830FFF7E5FE054695B12E4621E0012613
:102F800035461EE0B3F5401F01D1002508E00126BB
:102F9000354616E0984AD36A43F40033D3620025DD
:102FA000954A136D23F44013A16E0B43136500265D
:102FB00007E002212830FFF747FF0546DCE700263F
:102FC0003546236813F4807F14D0A36D042B31D8C9
:102FD000DFE803F0032229080800874AD36A43F494
:102FE0000033D3624DBB844A136D23F00703A16DF8
:102FF0000B431365236813F4007F38D0E36D802BF7
:103000004AD01FD833B3402B19D1002104F1080056
:10301000FFF796FE054622E0002104F10800FFF7C5
:103020008FFE0546DEE7002104F12800FFF70CFFC4
:103030000546D7E701263546DCE72E46DAE70126C6
:10304000354614E0C02B0AD0B3F5807F07D00126A7
:1030500035460CE0684AD36A43F40033D36215BBAB
:10306000654A136D23F4E073E16D0B431365236828
:1030700013F4806F3CD0D4F8A830B3F5800F2FD074
:1030800016D8F3B1B3F5001F0FD1002104F10800E9
:10309000FFF756FE054619E0002104F12800FFF76E
:1030A000D3FE0546DBE72E46E1E7012635461FE065
:1030B000B3F5C00F0AD0B3F5000F07D0012635468F
:1030C00016E04D4AD36A43F40033D3627DB94A4ACD
:1030D000936D23F46003D4F8A8100B43936507E0C5
:1030E000002104F12800FFF7AFFE0546EEE72E466B
:1030F000236813F4006F2BD0D4F8AC30B3F1007F09
:1031000053D00DD8ABB1B3F1807F06D1002104F1CB
:103110000800FFF715FE054610E00126354617E0CA
:10312000B3F1407F0AD0B3F1806F07D00126354656
:103130000EE0314AD36A43F40033D362002D3BD111
:103140002D4A936D23F0E063D4F8AC100B439365E4
:10315000236813F0007F13D0E36C202B36D030D8D7
:1031600033B1102B2AD1244AD36A43F40033D362FB
:103170009DBB214AD36C23F03003E16C0B43D36435
:10318000236813F4805F47D0236EB3F5005F00F02F
:103190008D8027D893B3B3F5805F20D1002104F14F
:1031A0000800FFF7CDFD05462DE0002104F12800C1
:1031B000FFF74AFE0546C1E72E46C9E70126354618
:1031C000DEE7302BD4D001263546D9E7022104F1C1
:1031D0000800FFF7B5FD0546CAE72E46D0E70126F1
:1031E000354619E0B3F5405F0DD0B3F5804F0AD0F6
:1031F0000126354610E000BF00440258774AD36AE2
:1032000043F40033D362002D57D1744A136D23F475
:10321000E043216E0B431365236813F4005F17D05E
:10322000636EB3F5003F59D04CD843B1B3F5803F3E
:1032300045D1012104F10800FFF782FD0546002D6C
:1032400053D1664A136D23F4E023616E0B4313657B
:10325000236813F4804F19D0D4F8B030B3F1005F75
:1032600054D047D843B1B3F1805F40D1012104F17C
:103270000800FFF765FD0546002D4ED1574A936DB6
:1032800023F0E043D4F8B0100B439365236813F4A4
:10329000004F51D0236FB3F1805F40D0B3F1005F96
:1032A00055D0002B40D00126354645E0002104F1E1
:1032B0002800FFF7C9FD0546A5E72E46ACE7012625
:1032C0003546C5E7B3F5802FB9D0B3F5A02FB6D0FA
:1032D000B3F5403FB3D001263546B9E7012104F1EB
:1032E0002800FFF7B1FD0546A9E72E46B0E7012605
:1032F0003546CBE7B3F1804FBED0B3F1A04FBBD082
:10330000B3F1405FB8D001263546BFE7012104F193
:103310002800FFF799FD0546AEE72E46B6E72F4A8F
:10332000D36A43F40033D362C5B92C4A136D23F03A
:103330004053216F0B431365236813F0807F1CD02B
:10334000A36C032B44D8DFE803F0100B3C100121E1
:1033500004F10800FFF7F4FC0546E5E72E46EBE72D
:103360001E4AD36A43F40033D362A5BB1B4AD36C15
:1033700023F00303A16C0B43D364236813F4800F81
:103380002ED1236813F0010F00F0A680E36F282BE5
:1033900000F2A080DFE803F08E9E9E9E9E9E9E9E81
:1033A000889E9E9E9E9E9E9E979E9E9E9E9E9E9E5A
:1033B0008E9E9E9E9E9E9E9E8E9E9E9E9E9E9E9E4D
:1033C0008E00022104F10800FFF7BAFC0546CCE7A5
:1033D00001263546D1E72E46CFE700BF004402580C
:1033E000584A136843F480731360FEF727FA0746C0
:1033F000544B1B6813F4807F05D1FEF71FFAC01BE6
:103400006428F5D90325002D4AD14F4B1B6FD4F802
:10341000B420534013F4407F0CD04B4B1A6F22F46E
:103420004072196F41F480311967196F21F48031AE
:1034300019671A67D4F8B430B3F5807F15D08DBB07
:10344000D4F8B43003F44072B2F5407F1ED03E4A47
:10345000136923F47C5313613B490B6FD4F8B420F8
:10346000C2F30B0213430B678BE7FEF7E7F907463E
:10347000354B1B6F13F0020FE1D1FEF7DFF9C01BD4
:1034800041F288339842F3D90325D8E72E480269E0
:1034900022F47C522D4901EA131313430361DBE745
:1034A0002E466EE72E466CE7012104F10800FFF777
:1034B00047FC0546E5B9244A536D23F03803E16F14
:1034C0000B43536508E0012104F12800FFF7BCFC21
:1034D0000546EFE701263546236813F0020F17D0A3
:1034E000A36F052B29D8DFE803F00B05210B0B0B8D
:1034F0002E46F1E7012104F10800FFF721FC054603
:10350000F5B9114A536D23F00703A16F0B435365BF
:10351000236813F0040F2CD0D4F89430052B00F25C
:10352000DC80DFE803F01B15D31B1B1B012104F11A
:103530002800FFF789FC0546E2E701263546E7E764
:103540002E46E5E70048025800440258CFFFFF002E
:10355000012104F10800FFF7F3FB0546002D40F0C0
:10356000BF80B34A936D23F00703D4F894100B4344
:103570009365236813F0200F1DD0D4F89030B3F179
:10358000005F00F0C18000F2B0804BB1B3F1805F0A
:1035900040F0A880002104F10800FFF7D1FB0546A8
:1035A000002D40F0B880A24A536D23F0E043D4F8D8
:1035B00090100B435365236813F0400F1DD0D4F8CF
:1035C0009C30B3F5006F00F0BA8000F2A9804BB1D7
:1035D000B3F5806F40F0A180002104F10800FFF7EF
:1035E000AFFB0546002D40F0B180914A936D23F466
:1035F000E053D4F89C100B439365236813F0800FBD
:103600001DD0D4F8A030B3F5804F00F0B38000F2A5
:10361000A2804BB1B3F5005F40F09A80002104F125
:103620000800FFF78DFB0546002D40F0AA80804A78
:10363000936D23F46043D4F8A0100B439365236883
:1036400013F0080F0DD0D4F88430B3F5805F00F08C
:103650009A80774A536D23F44053D4F884100B4377
:103660005365236813F0100F0DD0D4F89830B3F5DC
:10367000807F00F092806E4A936D23F44073D4F8FB
:1036800098100B439365236813F4002F00F09A8081
:10369000D4F8A430B3F5803F00F08980B3F5003F43
:1036A00008D0002B40F08A80002104F10800FFF7C9
:1036B00047FB0546002D40F084805D4A936D23F45E
:1036C0004033D4F8A4100B4393657BE0012104F14F
:1036D0002800FFF7B9FB054640E70126354648E7D5
:1036E0002E4646E70126354665E7B3F1804F3FF4A5
:1036F00057AFB3F1A04F3FF453AFB3F1405F3FF486
:103700004FAF0126354656E7022104F12800FFF7A6
:103710009BFB054644E72E464DE7012635466CE700
:10372000B3F5805F3FF45EAFB3F5A05F3FF45AAFEF
:10373000B3F5406F3FF456AF012635465DE70221F1
:1037400004F12800FFF780FB05464BE72E4654E7BF
:103750000126354673E7B3F5004F3FF465AFB3F587
:10376000204F3FF461AFB3F5C04F3FF45DAF01268A
:10377000354664E7022104F12800FFF765FB0546A2
:1037800052E72E465BE7022104F12800FFF75CFBBD
:1037900000283FF45EAF01265BE7022104F1280018
:1037A000FFF752FB00283FF466AF012663E70221D2
:1037B00004F12800FFF748FB05467BE70126354664
:1037C00000E02E46236813F4802F18D0D4F88830F8
:1037D000B3F5001F1FD0B3F5401F07D0B3F5801F0E
:1037E00020D1134AD36A43F40033D362EDB9104AAF
:1037F000536D23F44013D4F888100B4353652368AA
:1038000013F4803F2CD0236DA3B1B3F5803F1FD0BC
:103810000126354624E0012104F12800FFF714FBBE
:103820000546E3E701263546E9E72E46E7E700BF10
:1038300000440258704AD36A43F40033D36275B926
:103840006D4AD36C23F48033216D0B43D36407E0BE
:10385000022104F10800FFF773FA0546EFE72E4650
:10386000236813F0005F11D1236813F4003F28D0C0
:10387000D4F88030B3F5807F14D010D9B3F5007F31
:1038800015D0B3F5407F12D001261AE0022104F1D1
:103890002800FFF7D9FA0028E6D00126E4E733B183
:1038A00001260EE0544AD36A43F40033D362002D5C
:1038B00069D1514A536D23F44073D4F880100B43FF
:1038C0005365236813F4801F06D04B4A136D23F011
:1038D0000043616F0B431365236813F0805F07D0CB
:1038E000454A136923F48043D4F8B8100B4313619D
:1038F000236813F4001F06D03F4A136D23F0807332
:10390000E16E0B431365236813F0804F09D03A4BE7
:103910001A6922F400421A611A69D4F8BC100A43E9
:103920001A612368002B06DA334AD36C23F0405324
:10393000616D0B43D364236813F4000F07D02E4A44
:10394000536D23F44003D4F88C100B435365636824
:1039500013F0010F19D1636813F0020F1ED16368D1
:1039600013F0040F23D1636813F0080F28D16368A4
:1039700013F0100F2DD1636813F0200F32D106B170
:1039800001263046F8BD2E469BE7002104F10800D1
:10399000FFF7D6F90028DED00646DCE7012104F166
:1039A0000800FFF7CDF90028D9D00646D7E7022155
:1039B00004F10800FFF7C4F90028D4D00646D2E786
:1039C000002104F12800FFF73FFA0028CFD0064677
:1039D000CDE7012104F12800FFF736FA0028CAD00C
:1039E0000646C8E7022104F12800FFF72DFA002857
:1039F000C5D00126C5E700BF0044025808B5FFF74F
:103A000059F9054B1B6AC3F30213044AD35C03F054
:103A10001F03D84008BD00BF0044025860BF00909B
:103A20002DE9F0410446874B9E6A9D6AC5F3053532
:103A3000D86AC0F30010DB6BC3F3CC0303FB00F0C8
:103A4000FCF7F4FC002D00F0F78006F003060746B3
:103A5000012E59D0022E00F0AB80002E40F0CA801B
:103A6000784B1B6813F0200F2CD0DFF8D881D8F8E2
:103A70000030C3F3C1037448D840FCF7D7FC0646B6
:103A80002846FCF7D3FC01463046FCF7DBFD054633
:103A9000D8F83800C0F30800FCF7C8FC06464FF021
:103AA00064513846FCF71AFD01463046FCF70EFC1F
:103AB0004FF07E51FCF70AFC01462846FCF70EFD4C
:103AC000054642E02846FCF7B1FC01465F48FCF79A
:103AD000B9FD05465B4B986BC0F30800FCF7A6FCEC
:103AE00006464FF064513846FCF7F8FC0146304674
:103AF000FCF7ECFB4FF07E51FCF7E8FB0146284653
:103B0000FCF7ECFC054620E02846FCF78FFC01465C
:103B10004F48FCF797FD05464A4B986BC0F30800E9
:103B2000FCF784FC06464FF064513846FCF7D6FC9F
:103B300001463046FCF7CAFB4FF07E51FCF7C6FB4E
:103B400001462846FCF7CAFC05463E4EB06BC0F362
:103B50004620FCF76BFC4FF07E51FCF7B7FB0146AB
:103B60002846FCF76FFDFCF709FE2060B06BC0F340
:103B70000640FCF75BFC4FF07E51FCF7A7FB0146CB
:103B80002846FCF75FFDFCF7F9FD6060B06BC0F301
:103B90000660FCF74BFC4FF07E51FCF797FB0146AB
:103BA0002846FCF74FFDFCF7E9FDA060BDE8F08179
:103BB0002846FCF73BFC01462648FCF743FD05463A
:103BC000204B986BC0F30800FCF730FC06464FF022
:103BD00064513846FCF782FC01463046FCF776FB20
:103BE0004FF07E51FCF772FB01462846FCF776FC4D
:103BF0000546AAE72846FCF719FC01461448FCF7DD
:103C000021FD05460F4B986BC0F30800FCF70EFC36
:103C100006464FF064513846FCF760FC01463046DA
:103C2000FCF754FB4FF07E51FCF750FB0146284651
:103C3000FCF754FC054688E7002323606360A3601B
:103C4000B4E700BF004402580090D0030024744C35
:103C50000024744A0024F44A2DE9F0410446874BBD
:103C60009E6A9D6AC5F30555D86AC0F300205B6C57
:103C7000C3F3CC0303FB00F0FCF7D8FB002D00F0EE
:103C8000F78006F003060746012E59D0022E00F0F9
:103C9000AB80002E40F0CA80784B1B6813F0200FD9
:103CA0002CD0DFF8D881D8F80030C3F3C1037448B2
:103CB000D840FCF7BBFB06462846FCF7B7FB01469D
:103CC0003046FCF7BFFC0546D8F84000C0F30800BA
:103CD000FCF7ACFB06464FF064513846FCF7FEFBA0
:103CE00001463046FCF7F2FA4FF07E51FCF7EEFA4F
:103CF00001462846FCF7F2FB054642E02846FCF761
:103D000095FB01465F48FCF79DFC05465B4B186C34
:103D1000C0F30800FCF78AFB06464FF064513846B2
:103D2000FCF7DCFB01463046FCF7D0FA4FF07E5141
:103D3000FCF7CCFA01462846FCF7D0FB054620E00C
:103D40002846FCF773FB01464F48FCF77BFC054611
:103D50004A4B186CC0F30800FCF768FB06464FF0AE
:103D600064513846FCF7BAFB01463046FCF7AEFA20
:103D70004FF07E51FCF7AAFA01462846FCF7AEFB4D
:103D800005463E4E306CC0F34620FCF74FFB4FF02B
:103D90007E51FCF79BFA01462846FCF753FCFCF7E2
:103DA000EDFC2060306CC0F30640FCF73FFB4FF0A9
:103DB0007E51FCF78BFA01462846FCF743FCFCF7E2
:103DC000DDFC6060306CC0F30660FCF72FFB4FF049
:103DD0007E51FCF77BFA01462846FCF733FCFCF7E2
:103DE000CDFCA060BDE8F0812846FCF71FFB014632
:103DF0002648FCF727FC0546204B186CC0F308004A
:103E0000FCF714FB06464FF064513846FCF766FB9E
:103E100001463046FCF75AFA4FF07E51FCF756FA4D
:103E200001462846FCF75AFB0546AAE72846FCF758
:103E3000FDFA01461448FCF705FC05460F4B186CCB
:103E4000C0F30800FCF7F2FA06464FF0645138461A
:103E5000FCF744FB01463046FCF738FA4FF07E5140
:103E6000FCF734FA01462846FCF738FB054688E79C
:103E7000002323606360A360B4E700BF00440258DE
:103E80000090D0030024744C0024744A0024F44AA7
:103E9000026852E8003F23F4907342E800310029A1
:103EA000F6D1026802F1080353E8001F0D4B0B40E6
:103EB000083242E800310029F3D1C36E012B06D04D
:103EC0002023C0F88C300023C36643677047026824
:103ED00052E8003F23F0100342E800310029F6D1F8
:103EE000EEE700BFFEFFFFEF704708B5026852E83B
:103EF000003F23F0400342E800310029F6D120239F
:103F0000C0F8883000238367FFF7EEFF08BD7047D5
:103F100008B5806B0023A0F85E30A0F85630FFF79C
:103F2000F6FF08BD7047000070B504460268D3690B
:103F30001068916840F60F0C13EA0C0F0DD113F0C6
:103F4000200F10D010F0200F02D111F0805F0AD0A6
:103F5000636F93B3204698472FE0884D0D402DD1D5
:103F6000874E30422AD1E56E012D00F0C08013F457
:103F7000801F03D011F4800F40F0948113F0800F64
:103F800007D010F0800F40F0948111F4000F40F042
:103F9000908113F0400F03D010F0400F40F090815B
:103FA00013F4000F03D010F0804F40F08D8113F018
:103FB000807F02D00028C0F28B8170BD13F0010F0A
:103FC00009D010F4807F06D001261662D4F8902024
:103FD0003243C4F8902013F0020F0BD011F0010F00
:103FE00008D0226802261662D4F8902042F004021B
:103FF000C4F8902013F0040F0BD011F0010F08D07B
:10400000226804261662D4F8902042F00202C4F816
:10401000902013F0080F0BD010F0200F00D13DB10D
:10402000226808251562D4F890202A43C4F890200D
:1040300013F4006F0CD010F0806F09D022684FF499
:1040400000651562D4F8902042F02002C4F8902058
:10405000D4F89020002AB0D013F0200F09D010F02F
:10406000200F02D111F0805F03D0636F0BB12046A7
:104070009847D4F8902023689B6813F0400F02D132
:1040800012F0280F2CD02046FFF702FF23689B6810
:1040900013F0400F20D0226802F1080353E8003FDC
:1040A00023F04003083242E800310029F3D1D4F86C
:1040B00080306BB1334A1A65D4F88000FDF7ECFD0F
:1040C00000283FF47AAFD4F88000036D984774E776
:1040D0002046FFF71CFF70E72046FFF718FF6CE74C
:1040E0002046FFF714FF0023C4F8903065E713F073
:1040F000100F3FF43CAF10F0100F3FF438AF102317
:10410000136223689B6813F0400F00F09180D4F88D
:10411000802013681C481D498B4218BF834237D04A
:1041200018318B4234D018318B4231D018318B4248
:104130002ED018318B422BD018318B4228D0183119
:104140008B4225D001F556718B4221D018318B421C
:104150001ED018318B421BD018318B4218D0183129
:104160008B4215D018318B4212D018318B420FD0B0
:1041700018318B420CD05B689BB20BE00100001041
:1041800020010004113F009010000240280002406E
:104190005B689BB2002B3FF410AFB4F85C109942FF
:1041A0007FF60BAFA4F85E30D369B3F5807F32D0D1
:1041B000226852E8003F23F4807342E8003100296E
:1041C000F6D1226802F1080353E8003F23F001030F
:1041D000083242E800310029F3D1226802F10803D5
:1041E00053E8003F23F04003083242E80031002941
:1041F000F3D12023C4F88C300023E366226852E810
:10420000003F23F0100342E800310029F6D1D4F832
:104210008000FDF7A1FB02232367B4F85C10B4F81B
:104220005E309BB2C91A89B22046FFF77BFEC4E616
:10423000B4F85C10B4F85E309BB2C91A89B2B4F815
:104240005E309BB2002B3FF4B8AE00293FF4B5AE10
:10425000226852E8003F23F4907342E800300028BF
:10426000F6D1226802F1080353E8000F1A4B03400D
:10427000083242E800300028F3D12023C4F88C3003
:104280000023E3666367226852E8003F23F01003CF
:1042900042E800300028F6D1022323672046FFF7CA
:1042A00041FE8AE64FF480131362204601F0B8F80D
:1042B00083E6A36F002B3FF480AE204698477CE650
:1042C0002046FFF712FE78E6204601F0ABF874E6D0
:1042D000204601F0A6F870E6FEFFFFEF08B5B0F843
:1042E0006030D0F88C20222A05D00268936943F010
:1042F0000803936108BD0268516ADBB2826D0B400E
:104300001370836D01338365B0F85E309BB2013B5F
:104310009BB2A0F85E30B0F85E309BB2002BE9D1C2
:10432000026852E8003F23F4907342E8003100290C
:10433000F6D1026802F1080353E8003F23F00103BD
:10434000083242E800310029F3D12023C0F88C3034
:104350000023436703670368164A93420CD05B68E7
:1043600013F4000F08D0026852E8003F23F0806386
:1043700042E800310029F6D1C36E012B16D100238B
:10438000C366026852E8003F23F0100342E80031A0
:104390000029F6D10368DA6912F0100F01D010225B
:1043A0001A62B0F85C10FFF7BDFDA3E701F02EFA2A
:1043B000A0E700BF000C005808B5B0F86020D0F8A6
:1043C0008C30222B05D00268936943F00803936177
:1043D00008BD03685B6A816D13400B80836D0233F7
:1043E0008365B0F85E309BB2013B9BB2A0F85E30B3
:1043F000B0F85E309BB2002BEAD1026852E8003F71
:1044000023F4907342E800310029F6D1026802F1EA
:10441000080353E8003F23F00103083242E800316B
:104420000029F3D12023C0F88C30002343670367B1
:104430000368164A93420CD05B6813F4000F08D04F
:10444000026852E8003F23F0806342E8003100290F
:10445000F6D1C36E012B16D10023C366026852E861
:10446000003F23F0100342E800310029F6D1036831
:10447000DA6912F0100F01D010221A62B0F85C1045
:10448000FFF750FDA4E701F0C1F9A1E7000C0058C7
:104490002DE9F843B0F860600368DD69D3F8009057
:1044A000D3F80880D0F88C20222A05D09A6942F0EF
:1044B00008029A61BDE8F8830446B0F8687008E025
:1044C000D4F89030002B4CD1B4F85E309BB2002B66
:1044D0004ED0002F00F0988015F0200F00F094804F
:1044E0002368596AF3B2A26D0B401370A36D0133B8
:1044F000A365B4F85E309BB2013B9BB2A4F85E307A
:104500002368DD6915F0070FDED015F0010F09D023
:1045100019F4807F06D001221A62D4F89030134338
:10452000C4F8903015F0020F0BD018F0010F08D02E
:10453000236802221A62D4F8903043F00403C4F8CE
:10454000903015F0040FBBD018F0010FB8D02368DD
:1045500004221A62D4F8903043F00203C4F8903079
:10456000AEE72046FFF7D3FC0023C4F89030ABE75A
:10457000226852E8003F23F4807342E800310029AA
:10458000F6D1226802F1080353E8001F304B0B40BC
:10459000083242E800310029F3D12023C4F88C30DE
:1045A00000236367236723682A4A934203D05B682A
:1045B00013F4000F06D1E36E012B0DD0204601F05D
:1045C00025F986E7226852E8003F23F0806342E83D
:1045D00000310029F6D1EEE70023E366226852E8B5
:1045E000003F23F0100342E800310029F6D1236890
:1045F000DA6912F0100F01D010221A62B4F85C10C0
:104600002046FFF78FFC64E7B4F85E309BB2002BC6
:104610003FF450AFB4F868209A427FF64BAF22685F
:1046200002F1080353E8003F23F08053083242E8C8
:1046300000310029F3D1084B6367226852E8003F3C
:1046400043F0200342E800310029F6D132E700BFF1
:10465000FEFFFFEF000C0058DD4200902DE9F8430B
:10466000B0F860600368DD69D3F80090D3F8088083
:10467000D0F88C20222A05D09A6942F008029A616B
:10468000BDE8F8830446B0F8687008E0D4F89030CC
:10469000002B4BD1B4F85E309BB2002B4DD0002FD5
:1046A00000F0978015F0200F00F0938023685B6A7C
:1046B000A26D33401380A36D0233A365B4F85E305E
:1046C0009BB2013B9BB2A4F85E302368DD6915F014
:1046D000070FDFD015F0010F09D019F4807F06D045
:1046E00001221A62D4F890301343C4F8903015F0C8
:1046F000020F0BD018F0010F08D0236802221A62B3
:10470000D4F8903043F00403C4F8903015F0040F4F
:10471000BCD018F0010FB9D0236804221A62D4F873
:10472000903043F00203C4F89030AFE72046FFF723
:10473000EEFB0023C4F89030ACE7226852E8003F5B
:1047400023F4807342E800310029F6D1226802F197
:10475000080353E8001F304B0B40083242E8003199
:104760000029F3D12023C4F88C300023636723672A
:1047700023682A4A934203D05B6813F4000F06D1E2
:10478000E36E012B0DD0204601F040F887E7226848
:1047900052E8003F23F0806342E800310029F6D15F
:1047A000EEE70023E366226852E8003F23F010039F
:1047B00042E800310029F6D12368DA6912F0100FBF
:1047C00001D010221A62B4F85C102046FFF7AAFB51
:1047D00065E7B4F85E309BB2002B3FF451AFB4F8FC
:1047E00068209A427FF64CAF226802F1080353E832
:1047F000003F23F08053083242E800310029F3D112
:10480000074B6367226852E8003F43F0200342E809
:1048100000310029F6D133E7FEFFFFEF000C00580E
:10482000B943009070B586B00446836802691343AB
:1048300042691343C269134301680868884A024009
:104840001A430A602268536823F44053E1680B431B
:104850005360A1692268834B9A4201D0236A1943AD
:104860009068814B03400B4393602268D36A23F026
:104870000F03616A0B43D36223687C4A934221D0C1
:104880007B4A934200F08C807A4A934200F0A280E7
:10489000794A934200F0B580784A934200F0C8808C
:1048A000774A934200F0F480764A934200F01981EF
:1048B000754A934200F02C816A4A934200F03F818E
:1048C000802233E0714A526D02F03802282A65D8FE
:1048D000DFE812F0290064006400640064006400F2
:1048E000640064004D0164006400640064006400BE
:1048F000640064002B0064006400640064006400D1
:10490000640064005E00640064006400640064008D
:10491000640064006000640064006400640064007B
:10492000640064006200012200E008224D498B42CD
:1049300000F02F81E069B0F5004F00F0AF81202A30
:1049400000F20682202A00F25382DFE812F0080209
:1049500022025102510225025102510251022A0241
:1049600051025102510251025102510251022F02D1
:10497000510251025102510251025102510251029F
:1049800051025102510251025102510251023B02A5
:104990001022CBE72022C9E74022C7E78022C5E7E3
:1049A0003A4A526D02F00702052A11D8DFE812F0E8
:1049B0000600E10008000A000C000E000022B5E726
:1049C0000822B3E71022B1E72022AFE74022ADE78B
:1049D0008022ABE72D4A526D02F00702052A0ED85D
:1049E000DFE802F003C90507090B00229EE7082251
:1049F0009CE710229AE7202298E7402296E780223F
:104A000094E7224A526D02F00702052A0ED8DFE829
:104A100002F003B40507090B002287E7082285E7A7
:104A2000102283E7202281E740227FE780227DE772
:104A3000164A526D02F00702052A0ED8DFE802F08E
:104A4000039F0507090B002270E708226EE710227A
:104A50006CE720226AE7402268E7802266E700BF11
:104A6000F369FFCF000C0058FFF4FF110010014064
:104A70000044004000480040004C0040005000400E
:104A80000014014000780040007C004000440258BF
:104A90007D4A526D02F03802282A20D8DFE802F061
:104AA000151F1F1F1F1F1F1F711F1F1F1F1F1F1FCE
:104AB000171F1F1F1F1F1F1F191F1F1F1F1F1F1F14
:104AC0001B1F1F1F1F1F1F1F1D0001222EE7082273
:104AD0002CE710222AE7202228E7402226E780221E
:104AE00024E7694A526D02F00702052A0ED8DFE872
:104AF00002F0034A0507090B002217E7082215E711
:104B0000102213E7202211E740220FE780220DE751
:104B10005D4A526D02F00702052A0ED8DFE802F066
:104B200003350507090B002200E70822FEE61022E4
:104B3000FCE62022FAE64022F8E68022F6E602F5BC
:104B40000E32926D02F00702052A0ED8DFE802F05D
:104B5000031F0507090B0222E8E60822E6E61022F9
:104B6000E4E62022E2E64022E0E68022DEE60422BD
:104B7000DCE60422DAE60422D8E60422D6E60422A1
:104B8000D4E60422D2E60422D0E60422CEE60422B1
:104B9000CCE6202A27D8022AC0F01881023A1E2A21
:104BA00000F21681DFE812F026001401560014010D
:104BB000140114015B001401140114011401140107
:104BC00014011401600014011401140114011401F2
:104BD000140114011401140114011401140114012D
:104BE000140114016C00402A02D14FF4004006E089
:104BF0000120FEE0FEF702FF002800F0EB80626A71
:104C0000224B33F81220B0FBF2F3656805EB450147
:104C1000994200F2E180B3EB053F00F2DF8000260D
:104C200033463146FBF7CAFD090241EA1061000232
:104C30006B08C0182A46334641F10001FBF7BEFD60
:104C4000A0F54072124B9A4200F2CA802368D860E5
:104C50003046CEE003A8FEF7E3FE0498CCE76846B2
:104C6000FEF7FAFF0198C7E7074B1B6813F0200F08
:104C700008D0054B1B68C3F3C1030648D840BEE704
:104C80000548BCE70348BAE70044025870BF0090EB
:104C9000FFFC0F000090D00300093D00202A15D82A
:104CA000202A00F29F80DFE802F015369D9D399D95
:104CB0009D9D3E9D9D9D9D9D9D9D439D9D9D9D9DDD
:104CC0009D9D9D9D9D9D9D9D9D9D4F00402A06D033
:104CD00001208EE0FEF710F8002800F08580626A5F
:104CE0004B4B33F81230B0FBF3F06268530803EB20
:104CF0004003B3FBF2F3A3F110014FF6EF729142C0
:104D000074D89AB222F00F02C3F34203134322680D
:104D1000D36000206DE0FEF701F8DDE703A8FEF7A1
:104D20007FFE0498D8E76846FEF796FF0198D3E720
:104D3000384B1B6813F0200F08D0364B1B68C3F3A9
:104D4000C1033548D840CAE73448C8E73248C6E707
:104D5000402A02D14FF4004005E0012049E0FDF770
:104D6000CBFF00284FD0626A294B33F81230B0FBDA
:104D7000F3F0636800EB5300B0FBF3F0A0F1100216
:104D80004FF6EF739A4240D8236880B2D860002073
:104D90002FE0FDF7C3FFE4E703A8FEF741FE049808
:104DA000DFE76846FEF758FF0198DAE7194B1B6802
:104DB00013F0200F08D0174B1B68C3F3C10316482C
:104DC000D840D0E71548CEE71348CCE7012010E0E3
:104DD00001200EE000200CE001200AE0012008E0A4
:104DE000012006E0012004E0002002E0012000E0B4
:104DF00001200123A4F86A30A4F868300023636717
:104E0000A36706B070BD0020F3E70120F1E700BF03
:104E100070BF0090004402580090D00300093D008C
:104E2000836A13F0010F06D00268536823F400333D
:104E3000C16A0B435360836A13F0020F06D0026805
:104E4000536823F48033016B0B435360836A13F080
:104E5000040F06D00268536823F48023416B0B4390
:104E60005360836A13F0080F06D00268536823F476
:104E70000043816B0B435360836A13F0100F06D01D
:104E80000268936823F48053C16B0B439360836A79
:104E900013F0200F06D00268936823F40053016CCE
:104EA0000B439360836A13F0400F0AD00268536883
:104EB00023F48013416C0B435360436CB3F5801FA4
:104EC0000BD0836A13F0800F06D00268536823F476
:104ED0000023C16C0B43536070470268536823F48E
:104EE000C003816C0B435360EBE72DE9F8430546A3
:104EF0000F4616469946DDF820802B68DC6937EAB4
:104F000004040CBF01240024B44232D1B8F1FF3FA5
:104F1000F3D0FCF793FCA0EB090040452CD8B8F186
:104F2000000F2BD02B681A6812F0040FE5D0DA6955
:104F300012F0080F11D1DA6912F4006FDDD04FF4CE
:104F400000621A622846FEF7A3FF2023C5F89030BE
:104F5000002385F8843003200CE008241C622846D6
:104F6000FEF796FFC5F89040002385F884300120B5
:104F700000E00020BDE8F8830320FBE70320F9E709
:104F80002DE9F04182B01E46D0F88830202B5BD14D
:104F900004460D469046002A18BF002901D1012081
:104FA00053E00023C0F890302123C0F88830FCF78C
:104FB00045FC0746A4F85480A4F85680A368B3F5CE
:104FC000805F02D04FF0000816E0236943B34FF032
:104FD000000811E02023C4F88830032035E038F8B9
:104FE000023B2268C3F308039362B4F8562092B2DE
:104FF000013A92B2A4F85620B4F856309BB293B15D
:1050000000963B46002280212046FFF76EFF0028D5
:10501000E0D1002DE3D015F8012B23689A62E4E774
:10502000A8460025E8E700963B460022402120469E
:10503000FFF75BFF18B92023C4F8883005E0202370
:10504000C4F88830032000E0022002B0BDE8F081FF
:105050002DE9F04383B01E46D0F88C30202B7ED152
:1050600004460D469046002A18BF002901D10120B0
:1050700076E00023C0F890302222C0F88C20C3666E
:10508000FCF7DCFB0746A4F85C80A4F85E80A3680C
:10509000B3F5805F06D0A3B9226972B9FF22A4F8E4
:1050A000602014E0226922B940F2FF12A4F86020C7
:1050B0000DE0FF22A4F8602009E07F22A4F8602020
:1050C00005E0B3F1805F0AD00022A4F86020B4F8B4
:1050D0006080B3F5805F0CD04FF0000924E02269B6
:1050E0001AB97F22A4F86020F1E73F22A4F86020DB
:1050F000EDE7236913B14FF0000915E0A94600253B
:1051000012E02023C4F88C30032029E023685A6A77
:105110005FFA88F3134005F8013BB4F85E2092B2C1
:10512000013A92B2A4F85E20B4F85E309BB28BB123
:1051300000963B46002220212046FFF7D6FE00289D
:10514000DFD1002DE2D123685B6A08EA030329F866
:10515000023BE2E72023C4F88C30002000E002206C
:1051600003B0BDE8F08330B583B004460023C0F837
:105170009030FCF763FB05462268126812F0080FB6
:1051800010D123681B6813F0040F28D12023C4F822
:105190008830C4F88C300020E066206784F88400F2
:1051A00003B030BD6FF07E430093034600224FF4FE
:1051B00000112046FFF799FE0028E2D0226852E84D
:1051C000003F23F0800342E800310029F6D120237C
:1051D000C4F88830002384F884300320E0E76FF0BF
:1051E0007E4300932B4600224FF480012046FFF7B8
:1051F0007CFE0028CAD0226852E8003F23F4907356
:1052000042E800310029F6D1226802F1080353E890
:10521000003F23F00103083242E800310029F3D1B6
:105220002023C4F88C30002384F884300320B7E7AF
:1052300078B310B50446D0F888300BB32423C4F8F3
:1052400088302268136823F0010313602046FFF7BB
:10525000E9FA012813D0A36ABBB92268536823F482
:10526000904353602268936823F02A039360226876
:10527000136843F0010313602046FFF774FF10BD6D
:1052800080F8843000F06EFAD8E72046FFF7C8FDBA
:10529000E3E701207047000010B48165A0F85C20AE
:1052A000A0F85E20002343678368B3F5805F06D0D3
:1052B000A3B9036973B9FF23A0F8603014E0036950
:1052C00023B940F2FF13A0F860300DE0FF23A0F8EF
:1052D000603009E07F23A0F8603005E0B3F1805F23
:1052E0002DD00023A0F860300023C0F89030222396
:1052F000C0F88C30016801F1080353E8003F43F027
:105300000103083141E80034002CF3D1436EB3F1BE
:10531000005F1ED08368B3F5805F42D0294B43679E
:105320000369002B43D0026852E8003F43F49073B6
:1053300042E800310029F6D1002010BC7047036913
:105340001BB97F23A0F86030CEE73F23A0F8603080
:10535000CAE7B0F868309342DCD88368B3F5805F61
:1053600019D0194B4367036943B1026852E8003F03
:1053700043F4807342E800310029F6D1026802F15B
:10538000080353E8003F43F08053083242E80031FD
:105390000029F3D1D0E70369002BE2D10B4B43671F
:1053A000E1E70369002BB9D1094B4367B8E702680D
:1053B00052E8003F43F0200342E800310029F6D1D3
:1053C000BAE700BFDD420090914400905D46009036
:1053D000B943009038B5D0F88C30202B19D1002A71
:1053E00018BF002917D00023C36603680B4CA342E3
:1053F0000CD05B6813F4000F08D0046854E8003F39
:1054000043F0806344E80035002DF6D1FFF744FFF8
:1054100000E0022038BD0120FCE700BF000C00586E
:105420007047704770470000014B1860704700BF1D
:105430000807002410B44FF0E02254690B4B1B689E
:1054400000FB03FC9369002104E0E01A02441144CC
:10545000614509D21A464FF0E0239B699A42FAD07F
:10546000F3D9D21A1144F3E710BC7047080700249F
:1054700008B54FF47A7303FB00F0FFF7DBFF08BDBC
:1054800008B5054B1860054B186800230222194621
:10549000806800F069FC08BD0C0700241C00002493
:1054A000022801D80120704708B500F01DFE09232D
:1054B0000360002008BD000010B5013801280AD89B
:1054C00014464FF0FF3392B207480068FFF758FDCB
:1054D00040B9204610BD00F007FE092303604FF0DD
:1054E000FF30F7E70520F5E70C070024022801D874
:1054F0000020704708B500F0F7FD092303604FF066
:10550000FF3008BD08B500F0EFFD092303604FF040
:10551000FF3008BD08B548B94FF0FF3301220848F5
:105520000068FFF795FD40B9012008BD00F0DCFDE3
:10553000092303604FF0FF30F7E70520F5E700BFD0
:105540000C07002408B5022804D84FF400534B6020
:10555000002008BD00F0C8FD09230360F8E7000043
:105560002B4B5B6913F4003F13D1BFF34F8FBFF395
:105570006F8F274B0022C3F85022BFF34F8FBFF32A
:105580006F8F5A6942F400325A61BFF34F8FBFF3F5
:105590006F8F1F4B5B6913F4803F31D110B41C4BEC
:1055A0000022C3F88420BFF34F8FD3F88040C4F3A8
:1055B0004E3000E01846C4F3C90243F6E07303EA34
:1055C000401343EA82731249C1F860321346013A2C
:1055D000002BF2D1431E0028ECD1BFF34F8F4B6953
:1055E00043F480334B61BFF34F8FBFF36F8F084A93
:1055F000D2F89C3243F00403C2F89C3210BC7047CE
:10560000034AD2F89C3243F00403C2F89C3270473C
:1056100000ED00E030B5CFB0404CE56825F0040562
:10562000E56000250095A56945F44045A561A4699C
:1056300004F4404400943A4CE56A45F00105E56203
:10564000E46A04F001040094009C344CA46914F44E
:10565000005FFAD021243B944FF480343C94002422
:105660003E944294012541950225449545954790E5
:105670004691489249934C9408234B934D943BA8F0
:10568000FCF764FD18B1012420464FB030BD3F2324
:10569000339303233493359408233693402338936C
:1056A0004FF48062399237933A93042133A8FDF77F
:1056B000B7F908B10124E7E71A4A0023CDE902232C
:1056C000082304934FF4DC7305930695079508951A
:1056D00009940A940B9414951594209421944FF4F2
:1056E0004013249302A8FDF733FC044608B10124BB
:1056F000CAE7FCF723FD0C4B1A6842F080021A60DF
:10570000D3F8F4202A43C3F8F420D3F8F4302B4024
:105710000193019BFCF79EF8B6E700BF00480258D2
:1057200000040058030004030044025810B50A4C5A
:105730000A4B236060600023A360E3602361A361E0
:105740000C2363612046FFF773FD012204492046C4
:10575000FFF740FE10BD00BF1007002400100140FD
:10576000A40700240268264B9A4200D0704730B547
:1057700089B0244BD3F8F02042F01002C3F8F02097
:10578000D3F8F02002F010020092009AD3F8E02043
:1057900042F00102C3F8E020D3F8E02002F0010259
:1057A0000192019AD3F8E02042F00102C3F8E02010
:1057B000D3F8E03003F001030293029B4FF400732F
:1057C000039302230493012205920693072507956C
:1057D0000D4C03A92046FCF797FB4FF4806303931D
:1057E000079503A92046FCF78FFB2520FCF79CF8C2
:1057F000032211462520FCF787F809B030BD00BF11
:1058000000100140004402580000025808B5026828
:105810001A4B9A4200D008BD194A1388B2F90020E9
:10582000002A09DB13F4804F11D0164A12780A2A95
:1058300008D0134B00221A80012212491248FFF7A8
:10584000C9FDE8E7114A1A430D4B1A80F4E70D4AE7
:1058500012780D2A0DD0C3F30D010D4842540133C7
:105860009BB2074A1380C72BE6D9134600221A8041
:10587000E2E743F48043024A1380DDE70010014071
:10588000A6070024A4070024100700240080FFFFBF
:10589000A807002408B50248FEF746FB08BD00BF74
:1058A000100700242DE9F047089D0E4604460F46D8
:1058B000002B4AD194468C45B2FA82F260D942B1AB
:1058C000C2F12003974020FA03F30CFA02FC1F43B5
:1058D00094404FEA1C4E1FFA8CF6B7FBFEF1230CE6
:1058E0000EFB117743EA074301FB06F098420AD901
:1058F0001CEB030301F1FF3780F01581984240F261
:105900001281023963441B1AA4B2B3FBFEF00EFBF2
:10591000103344EA034400FB06F6A6420AD91CEB06
:10592000040400F1FF3380F00081A64240F2FD80C4
:105930006444023840EA0140A41B00211DB1D44058
:105940000023C5E90043BDE8F0878B4205D90DB1BE
:10595000C5E9000100210846F5E7B3FA83F1002903
:1059600046D1B34202D3824200F2F580841A66EB3C
:10597000030201201746002DE5D0C5E90047E2E704
:10598000002A40F09380A1EB0C034FEA1C471FFA5A
:105990008CFE0121B3FBF7F607FB1630230C43EA1C
:1059A00000430EFB06F0984208D91CEB030306F1F6
:1059B000FF3802D2984200F2D08046461B1AA4B2A9
:1059C000B3FBF7F007FB103344EA03440EFB00FE81
:1059D000A64508D91CEB040400F1FF3302D2A6450A
:1059E00000F2B6801846A4EB0E0440EA0640A5E794
:1059F000C1F120078B4022FA07FC4CEA030C06FA9F
:105A000001FE20FA07F426FA07F344EA0E0400FA2E
:105A100001F84FEA1C404FEA1449B3FBF0FE1FFAAD
:105A20008CF600FB1E3349EA03430EFB06F9994549
:105A300002FA01F20BD91CEB03030EF1FF3A80F0DE
:105A40008580994540F28280AEF1020E6344A3EB5B
:105A50000909A4B2B9FBF0F300FB139944EA094425
:105A600003FB06F6A64208D91CEB040403F1FF3041
:105A700068D2A64266D9023B644443EA0E40A41BA6
:105A8000A0FB02E6B4427346B14652D34FD05DB19B
:105A9000B8EB030264EB090404FA07F722FA01F3F6
:105AA0001F43CC40C5E9007400214CE7C2F120013E
:105AB00020FA01F30CFA02FC26FA01F19640334376
:105AC0004FEA1C471FFA8CFEB1FBF7F007FB1016DC
:105AD000190C41EA064100FB0EF68E4204FA02F46C
:105AE00008D91CEB010100F1FF382DD28E422BD9D1
:105AF00002386144891B9BB2B1FBF7F607FB161114
