:020000040800F2
:100000000000082411170008CD150008D5150008B8
:10001000D7150008DD150008DF15000800000000F6
:10002000000000000000000000000000E1150008D2
:10003000E315000800000000E5150008E7150008BA
:1000400061170008611700086117000861170008B0
:1000500061170008611700086117000861170008A0
:100060006117000861170008611700086117000890
:100070006117000861170008611700086117000880
:100080006117000861170008611700086117000870
:100090006117000861170008611700086117000860
:1000A0006117000861170008611700086117000850
:1000B0006117000861170008611700086117000840
:1000C0006117000861170008611700086117000830
:1000D00061170008417300086117000861170008E4
:1000E0006117000861170008000000006117000890
:1000F0006117000861170008611700086117000800
:1001000061170008611700086117000861170008EF
:1001100061170008611700086117000861170008DF
:1001200061170008611700086117000861170008CF
:1001300061170008611700086117000861170008BF
:1001400000000000000000000000000000000000AF
:10015000611700086117000861170008611700089F
:10016000611700086117000861170008611700088F
:10017000611700086117000861170008611700087F
:10018000611700086117000861170008611700086F
:10019000611700086117000861170008611700085F
:1001A000611700086117000861170008611700084F
:1001B000611700086117000861170008611700083F
:1001C000611700086117000861170008611700082F
:1001D000611700086117000861170008611700081F
:1001E000611700086117000861170008611700080F
:1001F00061170008611700086117000861170008FF
:1002000061170008611700086117000861170008EE
:1002100061170008611700086117000861170008DE
:10022000611700086117000861170008000000004E
:10023000611700086117000800000000611700083E
:1002400061170008611700086117000861170008AE
:10025000611700086117000861170008611700089E
:10026000611700086117000861170008611700088E
:1002700061170008611700086117000800000000FE
:1002800061170008611700086117000800000000EE
:080290000000000061170008E6
:1002C00080F0004002E000BF81F0004142001FBF0B
:1002D0005FEA410392EA030F7FEA226C7FEA236C14
:1002E0006AD04FEA1262D2EB1363C1BFD218414009
:1002F00048404140B8BF5B42192B88BF704710F09F
:10030000004F40F4000020F07F4018BF404211F041
:10031000004F41F4000121F07F4118BF494292EAA9
:10032000030F3FD0A2F1010241FA03FC10EB0C00D5
:10033000C3F1200301FA03F100F0004302D5494262
:1003400060EB4000B0F5000F13D3B0F1807F06D30F
:1003500040084FEA310102F10102FE2A51D2B1F107
:10036000004F40EBC25008BF20F0010040EA0300FC
:100370007047490040EB0000013A28BFB0F5000F7C
:10038000EDD2B0FA80FCACF1080CB2EB0C0200FA32
:100390000CF0AABF00EBC25052421843BCBFD04081
:1003A0001843704792F0000F81F4000106BF80F4FB
:1003B00000000132013BB5E74FEA41037FEA226CBE
:1003C00018BF7FEA236C21D092EA030F04D092F089
:1003D000000F08BF0846704790EA010F1CBF0020BD
:1003E000704712F07F4F04D1400028BF40F000401A
:1003F000704712F100723CBF00F50000704700F03A
:10040000004343F0FE4040F4000070477FEA226260
:1004100016BF08467FEA23630146420206BF5FEA31
:10042000412390EA010F40F4800070474FF0000331
:1004300004E000BF10F0004348BF40425FEA000CF8
:1004400008BF704743F0964301464FF000001CE0A0
:1004500050EA010208BF70474FF000030AE000BFF6
:1004600050EA010208BF704711F0004302D5404234
:1004700061EB41015FEA010C02BF844601460020A6
:1004800043F0B64308BFA3F18053A3F50003BCFAC1
:100490008CF2083AA3EBC25310DB01FA02FC63446E
:1004A00000FA02FCC2F12002BCF1004F20FA02F275
:1004B00043EB020008BF20F00100704702F1200268
:1004C00001FA02FCC2F1200250EA4C0021FA02F2C9
:1004D00043EB020008BF20EADC7070474FF0FF0CCE
:1004E0001CEAD0521EBF1CEAD15392EA0C0F93EAC9
:1004F0000C0F6FD01A4480EA010C400218BF5FEA6B
:1005000041211ED04FF0006343EA501043EA5111DD
:10051000A0FB01310CF00040B1F5000F3EBF4900D7
:1005200041EAD3715B0040EA010062F17F02FD2ADB
:100530001DD8B3F1004F40EBC25008BF20F00100BE
:10054000704790F0000F0CF0004C08BF49024CEAD5
:10055000502040EA51207F3AC2BFD2F1FF0340EA67
:10056000C250704740F400004FF00003013A5DDCD8
:1005700012F1190FDCBF00F000407047C2F1000219
:10058000410021FA02F1C2F1200200FA02FC5FEA06
:10059000310040F1000053EA4C0308BF20EADC7050
:1005A000704792F0000F00F0004C02BF400010F4C2
:1005B000000F013AF9D040EA0C0093F0000F01F06F
:1005C000004C02BF490011F4000F013BF9D041EA91
:1005D0000C018FE70CEAD15392EA0C0F18BF93EA93
:1005E0000C0F0AD030F0004C18BF31F0004CD8D1BD
:1005F00080EA010000F00040704790F0000F17BF44
:1006000090F0004F084691F0000F91F0004F14D089
:1006100092EA0C0F01D142020FD193EA0C0F03D1E1
:100620004B0218BF084608D180EA010000F00040E4
:1006300040F0FE4040F40000704740F0FE4040F4BF
:10064000400070474FF0FF0C1CEAD0521EBF1CEA5E
:10065000D15392EA0C0F93EA0C0F69D0A2EB03027C
:1006600080EA010C49024FEA402037D04FF0805316
:1006700043EA111143EA10130CF000408B4238BFDB
:100680005B0042F17D024FF4000C8B4224BF5B1AE9
:1006900040EA0C00B3EB510F24BFA3EB510340EA37
:1006A0005C00B3EB910F24BFA3EB910340EA9C00E5
:1006B000B3EBD10F24BFA3EBD10340EADC001B0155
:1006C00018BF5FEA1C1CE0D1FD2A3FF650AF8B42F9
:1006D00040EBC25008BF20F0010070470CF0004C06
:1006E0004CEA50207F32C2BFD2F1FF0340EAC25031
:1006F000704740F400004FF00003013A37E792F0F2
:10070000000F00F0004C02BF400010F4000F013A4F
:10071000F9D040EA0C0093F0000F01F0004C02BF4A
:10072000490011F4000F013BF9D041EA0C0195E7B3
:100730000CEAD15392EA0C0F08D142027FF47DAF4C
:1007400093EA0C0F7FF470AF084676E793EA0C0F3C
:1007500004D14B023FF44CAF08466EE730F0004C3A
:1007600018BF31F0004CCAD130F000427FF45CAFCA
:1007700031F000437FF43CAF5FE700BF42000ED290
:10078000B2F1FE4F0BD34FF09E03B3EB126209D4CC
:100790004FEA002343F0004323FA02F070474FF082
:1007A0000000704712F1610F01D1420202D14FF0F7
:1007B000FF3070474FF00000704700BF53B94AB98F
:1007C000002908BF00281CBF4FF0FF314FF0FF3059
:1007D00000F00CB8ADF1080C6DE904CE06F0B8FDE0
:1007E000DDF804E0DDE9022304B07047704700BF84
:1007F00001F0FF01102A2BDB10F0070F08D010F8D2
:10080000013B013A8B422DD010F0070F42B3F6D1D5
:10081000F0B441EA012141EA014122F007047FF0EE
:1008200000070023F0E80256083C85EA010586EA45
:10083000010685FA47F5A3FA87F586FA47F6A5FA81
:1008400087F68EB9EED1F0BC01F0FF0102F007028D
:1008500032B110F8013B013A83EA010313B1F8D138
:100860000020704701387047002D06BF3546033819
:10087000073815F0010F07D1013015F4807F02BF52
:10088000013015F4C03F0130F0BC0138704700BFA3
:10089000844641EA000313F003036DD1403A41D38B
:1008A00051F8043B40F8043B51F8043B40F8043B4A
:1008B00051F8043B40F8043B51F8043B40F8043B3A
:1008C00051F8043B40F8043B51F8043B40F8043B2A
:1008D00051F8043B40F8043B51F8043B40F8043B1A
:1008E00051F8043B40F8043B51F8043B40F8043B0A
:1008F00051F8043B40F8043B51F8043B40F8043BFA
:1009000051F8043B40F8043B51F8043B40F8043BE9
:1009100051F8043B40F8043B51F8043B40F8043BD9
:10092000403ABDD2303211D351F8043B40F8043B79
:1009300051F8043B40F8043B51F8043B40F8043BB9
:1009400051F8043B40F8043B103AEDD20C3205D389
:1009500051F8043B40F8043B043AF9D2043208D081
:10096000D2071CBF11F8013B00F8013B01D30B88F3
:1009700003806046704700BF082A13D38B078DD0D1
:1009800010F003038AD0C3F10403D21ADB071CBFA3
:1009900011F8013B00F8013B80D331F8023B20F80D
:1009A000023B7BE7043AD9D3013A11F8013B00F846
:1009B000013BF9D20B7803704B7843708B788370CE
:1009C00060467047000000000000000000000000CA
:1009D0000000000000000000000000000000000017
:1009E0000000000000000000000000000000000007
:1009F00000000000000000000000000000000000F7
:100A000030B490F800F020F007016FF0000C10F007
:100A1000070491F820F040F048804FF000046FF098
:100A20000700D1E9002391F840F000F1080082FAB4
:100A30004CF2A4FA8CF283FA4CF3A2FA8CF34BBB7F
:100A4000D1E9022382FA4CF200F10800A4FA8CF2F8
:100A500083FA4CF3A2FA8CF3E3B9D1E9042382FAC6
:100A60004CF200F10800A4FA8CF283FA4CF3A2FADB
:100A70008CF37BB9D1E9062301F1200182FA4CF213
:100A800000F10800A4FA8CF283FA4CF3A2FA8CF37A
:100A9000002BC6D0002A04BF04301A4612BAB2FA9C
:100AA00082F200EBD20030BC7047D1E9002304F0A1
:100AB0000305C4F100004FEAC50514F0040F91F8D6
:100AC00040F00CFA05F562EA05021CBF63EA050373
:100AD00062464FF00004AAE781F0004102E000BF47
:100AE00083F0004330B54FEA41044FEA430594EAEE
:100AF000050F08BF90EA020F1FBF54EA000C55EA29
:100B0000020C7FEA645C7FEA655C00F0E2804FEAF9
:100B10005454D4EB5555B8BF6D420CDD2C4480EADB
:100B2000020281EA030382EA000083EA010180EA0B
:100B3000020281EA0303362D88BF30BD11F0004F59
:100B40004FEA01314FF4801C4CEA113102D040428F
:100B500061EB410113F0004F4FEA03334CEA1333CA
:100B600002D0524263EB430394EA050F00F0A780E2
:100B7000A4F10104D5F1200E0DDB02FA0EFC22FADD
:100B800005F2801841F1000103FA0EF2801843FAD1
:100B900005F359410EE0A5F120050EF1200E012AC2
:100BA00003FA0EFC28BF4CF0020C43FA05F3C01800
:100BB00051EBE37101F0004507D54FF0000EDCF179
:100BC000000C7EEB00006EEB0101B1F5801F1BD322
:100BD000B1F5001F0CD349085FEA30004FEA3C0C26
:100BE00004F101044FEA445212F5800F80F09A801C
:100BF000BCF1004F08BF5FEA500C50F1000041EB20
:100C0000045141EA050130BD5FEA4C0C404141EB23
:100C10000101013C28BFB1F5801FE9D291F0000F1E
:100C200004BF01460020B1FA81F308BF2033A3F1CD
:100C30000B03B3F120020CDA0C3208DD02F1140CC4
:100C4000C2F10C0201FA0CF021FA02F10CE002F1FF
:100C50001402D8BFC2F1200C01FA02F120FA0CFCF8
:100C6000DCBF41EA0C019040E41AA2BF01EB045141
:100C7000294330BD6FEA04041F3C1CDA0C340EDC3F
:100C800004F11404C4F1200220FA04F001FA02F382
:100C900040EA030021FA04F345EA030130BDC4F140
:100CA0000C04C4F1200220FA02F001FA04F340EA35
:100CB0000300294630BD21FA04F0294630BD94F0E6
:100CC000000F83F4801306BF81F480110134013DCD
:100CD0004EE77FEA645C18BF7FEA655C29D094EA3E
:100CE000050F08BF90EA020F05D054EA000C04BFBC
:100CF0001946104630BD91EA030F1EBF00210020A7
:100D000030BD5FEA545C05D14000494128BF41F045
:100D1000004130BD14F580043CBF01F5801130BDA9
:100D200001F0004545F0FE4141F470014FF0000034
:100D300030BD7FEA645C1ABF194610467FEA655CE5
:100D40001CBF0B46024650EA013406BF52EA033587
:100D500091EA030F41F4002130BD00BF90F0000F75
:100D600004BF0021704730B54FF4806404F13204B1
:100D70004FF000054FF0000150E700BF90F0000F6A
:100D800004BF0021704730B54FF4806404F1320491
:100D900010F0004548BF40424FF000013EE700BF61
:100DA00042004FEAE2014FEA31014FEA02701FBFF1
:100DB00012F07F4393F07F4F81F06051704732F023
:100DC0007F4208BF704793F07F4F04BF41F400217A
:100DD000704730B54FF4607401F0004521F00041D8
:100DE0001CE700BF50EA010208BF704730B54FF062
:100DF00000050AE050EA010208BF704730B511F063
:100E0000004502D5404261EB41014FF4806404F19A
:100E100032045FEA915C3FF4D8AE4FF003025FEA20
:100E2000DC0C18BF03325FEADC0C18BF033202EBA4
:100E3000DC02C2F1200300FA03FC20FA02F001FAFE
:100E400003FE40EA0E0021FA02F11444BDE600BFA1
:100E500070B54FF0FF0C4CF4E06C1CEA11541DBF50
:100E60001CEA135594EA0C0F95EA0C0F00F0DEF81B
:100E70002C4481EA030621EA4C5123EA4C5350EA00
:100E8000013518BF52EA033541F4801143F4801351
:100E900038D0A0FB02CE4FF00005E1FB02E506F0E2
:100EA0000042E0FB03E54FF00006E1FB03569CF037
:100EB000000F18BF4EF0010EA4F1FF04B6F5007F3D
:100EC00064F5407404D25FEA4E0E6D4146EB0606AF
:100ED00042EAC62141EA55514FEAC52040EA5E5038
:100EE0004FEACE2EB4F1FD0C88BFBCF5E06F1ED8E2
:100EF000BEF1004F08BF5FEA500E50F1000041EB19
:100F0000045170BD06F0004646EA010140EA0200C5
:100F100081EA0301B4EB5C04C2BFD4EB0C0541EAE7
:100F2000045170BD41F480114FF0000E013C00F3FC
:100F3000AB8014F1360FDEBF002001F0004170BD20
:100F4000C4F10004203C35DA0C341BDC04F1140439
:100F5000C4F1200500FA05F320FA04F001FA05F2C5
:100F600040EA020001F0004221F0004110EBD37092
:100F700021FA04F642EB06015EEA430E08BF20EABE
:100F8000D37070BDC4F10C04C4F1200500FA04F361
:100F900020FA05F001FA04F240EA020001F00041F3
:100FA00010EBD37041F100015EEA430E08BF20EA66
:100FB000D37070BDC4F1200500FA05F24EEA020EAE
:100FC00020FA04F301FA05F243EA020321FA04F0DD
:100FD00001F0004121FA04F220EA020000EBD37094
:100FE0005EEA430E08BF20EAD37070BD94F0000F94
:100FF0000FD101F00046400041EB010111F4801FC8
:1010000008BF013CF7D041EA060195F0000F18BF78
:10101000704703F00046520043EB030313F4801FB4
:1010200008BF013DF7D043EA0603704794EA0C0F6E
:101030000CEA135518BF95EA0C0F0CD050EA410684
:1010400018BF52EA4306D1D181EA030101F0004101
:101050004FF0000070BD50EA410606BF1046194629
:1010600052EA430619D094EA0C0F02D150EA013635
:1010700013D195EA0C0F05D152EA03361CBF104676
:1010800019460AD181EA030101F0004141F0FE4115
:1010900041F470014FF0000070BD41F0FE4141F499
:1010A000780170BD70B54FF0FF0C4CF4E06C1CEA99
:1010B00011541DBF1CEA135594EA0C0F95EA0C0F4E
:1010C00000F0A7F8A4EB050481EA030E52EA033509
:1010D0004FEA013100F088804FEA03334FF080552A
:1010E00045EA131343EA12634FEA022245EA111557
:1010F00045EA10654FEA00260EF000419D4208BF08
:10110000964244F1FD0404F5407402D25B084FEAB4
:101110003202B61A65EB03055B084FEA32024FF460
:1011200080104FF4002CB6EB020E75EB030E22BFBD
:10113000B61A754640EA0C005B084FEA3202B6EB7D
:10114000020E75EB030E22BFB61A754640EA5C002C
:101150005B084FEA3202B6EB020E75EB030E22BFBC
:10116000B61A754640EA9C005B084FEA3202B6EBBD
:10117000020E75EB030E22BFB61A754640EADC007C
:1011800055EA060E18D04FEA051545EA16754FEADE
:1011900006164FEAC30343EA52734FEAC2025FEAFC
:1011A0001C1CC0D111F4801F0BD141EA00014FF08B
:1011B00000004FF0004CB6E711F4801F04BF01435C
:1011C0000020B4F1FD0C88BFBCF5E06F3FF6AFAE78
:1011D000B5EB030C04BFB6EB020C5FEA500C50F108
:1011E000000041EB045170BD0EF0004E4EEA11318B
:1011F00014EB5C04C2BFD4EB0C0541EA045170BD92
:1012000041F480114FF0000E013C90E645EA060ED5
:101210008DE60CEA135594EA0C0F08BF95EA0C0F03
:101220003FF43BAF94EA0C0F0AD150EA01347FF44B
:1012300034AF95EA0C0F7FF425AF104619462CE722
:1012400095EA0C0F06D152EA03353FF4FDAE104685
:10125000194622E750EA410618BF52EA43067FF4D6
:10126000C5AE50EA41047FF40DAF52EA43057FF466
:10127000EBAE12E74FF0FF3C06E000BF4FF0010C71
:1012800002E000BF4FF0010C4DF804CD4FEA410CD5
:101290007FEA6C5C4FEA430C18BF7FEA6C5C1BD0A2
:1012A00001B050EA410C0CBF52EA430C91EA030F23
:1012B00002BF90EA020F0020704710F1000F91EA80
:1012C000030F58BF994208BF90422CBFD8176FEA4E
:1012D000E37040F0010070474FEA410C7FEA6C5C1C
:1012E00002D150EA013C07D14FEA430C7FEA6C5C23
:1012F000D6D152EA033CD3D05DF8040B704700BF4F
:101300008446104662468C461946634600E000BF9C
:1013100001B5FFF7B7FF002848BF10F1000F01BD6E
:101320004DF808EDFFF7F4FF0CBF012000205DF839
:1013300008FB00BF4DF808EDFFF7EAFF34BF0120BE
:1013400000205DF808FB00BF4DF808EDFFF7E0FF57
:1013500094BF012000205DF808FB00BF4DF808EDA8
:10136000FFF7CEFF94BF012000205DF808FB00BF0F
:101370004DF808EDFFF7C4FF34BF012000205DF8F1
:1013800008FB00BF4FEA410C7FEA6C5C02D150EAD7
:10139000013C0AD14FEA430C7FEA6C5C02D152EA6D
:1013A000033C02D14FF0000070474FF0010070473E
:1013B0004FEA410212F5001215D211D56FF478737D
:1013C000B3EB625212D94FEAC12343F0004343EA20
:1013D000505311F0004F23FA02F018BF40427047FB
:1013E0004FF00000704750EA013005D111F0004085
:1013F00008BF6FF0004070474FF00000704700BF1B
:101400000348044B834202D0034B03B11847704793
:10141000EC060024EC060024000000000548064B02
:101420001B1AD90F01EBA301491002D0034B03B1E2
:1014300018477047EC060024EC060024000000006A
:1014400010B5064C237843B9FFF7DAFF044B13B10C
:101450000448AFF300800123237010BDEC06002484
:101460000000000038D8000808B5054B1BB105493D
:101470000548AFF30080BDE80840FFF7CFBF00BFCD
:1014800000000000F006002438D8000810B582B033
:101490004FF01043019305F00CFE4FF0E0220023C3
:1014A0001361536193610BE0164A03F120004FF082
:1014B000FF3142F8201003F1600042F820100133A0
:1014C000072BF1D905F0F7FD019B5B68019A1268C3
:1014D00082F30888002282F3148898470A4C00227D
:1014E0002021204601F00CFA4FF4FA7005F06AFD55
:1014F00001222021204601F003FA4FF4FA7005F092
:1015000061FDEBE700E100E00010025808B500F0D3
:101510004FFC042302221146F02005F0CFFD4FF4CA
:10152000F07005F02BFD4FF4E13005F055FE00F0B2
:10153000B9F900F017F9104805F04CFD00F08AFAEF
:1015400002F002FA01460D4806F050F9002240214F
:101550000B4801F0D5F9002000F04CF90028FAD032
:101560000328F8D100F0A0FA01224021044801F03C
:10157000C7F9FFF78BFF00BF6407002450D80008AD
:101580000010025882B0074BD3F8F42042F0020258
:10159000C3F8F420D3F8F43003F002030193019B65
:1015A00002B0704700440258BFF34F8F0549CA6824
:1015B00002F4E062044B1343CB60BFF34F8F00BFD4
:1015C000FDE700BF00ED00E00400FA0508B502F0F9
:1015D00059FDFEE7FEE708B5FFF7E6FFFEE7FEE789
:1015E00070477047704708B500F010FC08BD012037
:1015F000704708B506F0CEFA162303604FF0FF30AF
:1016000008BD08B54FF0FF31FFF7F3FFFEE700001C
:1016100010B503460C4A0D490D48006840B10C480E
:1016200000680344521A934206D8094A136010BD59
:101630000748084C0460F2E706F0ACFA0C2303609C
:101640004FF0FF30F3E700BF000008240004000063
:1016500008070024D80B0024244B1B6803F00F0359
:10166000062B06D8214A136823F00F0343F0070323
:1016700013601F4B1A6842F001021A6000221A61BF
:1016800019681C4A0A401A60184B1B6813F0080FAF
:1016900006D0164A136823F00F0343F007031360C4
:1016A000134B00229A61DA611A6213499962134955
:1016B000D962134919635A639963DA6319645A64E6
:1016C000196821F4802119601A660E4B1B686FF3AC
:1016D0000F03B3F1005F03D20B4B0122C3F80821C3
:1016E0000A4B43F2D2021A60704700BF002000523A
:1016F000004402587FEDF6EA000202020000FF01FA
:10170000800201010010005C008000510040005286
:10171000DFF834D0FFF7A0FF0C480D490D4A002335
:1017200002E0D458C4500433C4188C42F9D30A4A96
:101730000A4C002301E013600432A242FBD306F0FE
:101740002FFAFFF7E3FE7047000008240000002492
:10175000EC060024A0DE0008EC060024D80B0024D0
:10176000FEE7000070B588B0204BD3F8E02042F0CF
:101770000102C3F8E020D3F8E02002F00102009259
:10178000009AD3F8E02042F00102C3F8E020D3F839
:10179000E02002F001020192019AD3F8E02042F029
:1017A0000102C3F8E020D3F8E03003F00103029314
:1017B000029B02260396002304930125059503232B
:1017C00006930B4C03A9204600F0BCFE4FF40043E7
:1017D0000393059503A9204600F0B4FE03950596F2
:1017E00003A9204600F0AEFE08B070BD00440258C8
:1017F0000000025810B510B1284B01221A70274B77
:101800001B785BB30221264801F066F828B14FF43B
:101810000041234801F060F8D0B90A2005F0D2FB5E
:101820001E4B00221A7002211D4801F055F8F0B13C
:1018300000244FF400411A4801F04EF800B9022488
:101840000121174801F048F801280ED103240CE0CB
:101850000121134801F040F80128DED00221104890
:1018600001F03AF8012804D00024204610BD0124DC
:10187000DFE74FF400410A4801F02EF8012801D0BB
:101880000024F2E70121064801F026F8044618B9C1
:10189000024B01221A70E8E70024E6E70800002462
:1018A000000002582DE9F04389B0294BD3F8E0201D
:1018B00042F00202C3F8E020D3F8E02002F0020276
:1018C0000092009AD3F8E02042F01002C3F8E02022
:1018D000D3F8E02002F010020192019AD3F8E02040
:1018E00042F01002C3F8E020D3F8E03003F0100318
:1018F0000293029B4FF01009CDF80C900124049440
:1019000005940694DFF84C8003A9404600F01AFEC7
:1019100040270397104D03A9284600F013FE202608
:10192000039603A9284600F00DFE2246494640468C
:1019300000F0E6FF22463946284600F0E1FF224645
:101940003146284600F0DCFF09B0BDE8F08300BF57
:1019500000440258000402580010025808B5002341
:1019600003221946FF2000F06FF908BD08B50023D7
:1019700001221946062000F067F908BD00B583B0C2
:1019800000238DF80730022803D0032811D1152039
:1019900000E0352000234122194600F055F90121CD
:1019A0000DF1070000F0BCF99DF8070003B05DF8E9
:1019B00004FB0520EEE700B583B08DF80710022880
:1019C00003D003280FD1112000E031200023412251
:1019D000194600F039F901210DF1070000F0B0F9C6
:1019E00003B05DF804FB0120F0E710B50220FFF71B
:1019F000C5FF10F0020F00D010BD0446FFF7B6FF80
:101A000044F00201C9B20220FFF7D5FFF4E700005D
:101A100000B583B000F086F80023652219469020B7
:101A200000F012F9022101A800F07AF99DF80430C3
:101A30009DF8050040EA03204EF61873984202D044
:101A400003B05DF804FB024B03221A70F8E700BFF5
:101A50000900002410B500F065F8FFF77FFFFFF7DD
:101A6000C4FFFFF7D5FF0F4B18804EF6187398424E
:101A700000D010BD0320FFF781FF044610F0010FD6
:101A8000F7D1FFF773FF44F00201C9B20320FFF75B
:101A900092FFFFF76BFF002301221946B72000F0E9
:101AA000D3F8E6E70A00002408B5124B9B6813F050
:101AB000200FFAD10F4B4FF483725A610D4B9B6884
:101AC00013F0020FFAD00B4AD36843F00203D3603D
:101AD0004FF6FF720021202000F012F830B9064BBB
:101AE0001A78064B43EA0233024A536105F0E3FADF
:101AF00008BD00BF0050005209000024EBCD100FBC
:101B000000E0013A3AB1064B9B68034214BF01233F
:101B100000238B42F5D10AB10020704701207047A5
:101B20000050005208B50B480B4B03600123436083
:101B3000042282601022C260182202614FF4C06247
:101B4000426183610023C361036201F0F9F900B1CE
:101B5000012008BD0C070024005000522DE9F0417F
:101B60008AB0364BD3F8D42042F48042C3F8D42054
:101B7000D3F8D42002F480420192019AD3F8E020F5
:101B800042F00202C3F8E020D3F8E02002F00202A3
:101B90000292029AD3F8E02042F00802C3F8E02053
:101BA000D3F8E02002F008020392039AD3F8E02071
:101BB00042F01002C3F8E020D3F8E03003F0100345
:101BC0000493049B402305934FF00208CDF818803E
:101BD00001270797032608960A230993184C05A99D
:101BE000204600F0AFFC04250595CDF81880079736
:101BF00008960923099305A9204600F0A3FC4FF499
:101C00000063059304F5006405A9204600F09AFCE2
:101C10004FF48053059305A9204600F093FC4FF440
:101C20000053059305A9204600F08CFC059505A9F5
:101C3000044800F087FC0AB0BDE8F0810044025877
:101C4000000402580010025800B58FB000900191B6
:101C5000059302F00303032B05D8DFE803F0020C21
:101C6000101400230693C2F38103032B11D8DFE87D
:101C700003F00E181C204FF480730693F3E74FF423
:101C800000730693EFE74FF440730693EBE70023EE
:101C90000793C2F30113032B11D8DFE803F00E17EB
:101CA0001B1F4FF480630793F3E74FF40063079320
:101CB000EFE74FF440630793EBE7002303939209A8
:101CC000032A11D8DFE802F00E1E22264FF48053BB
:101CD0000393F4E74FF400530393F0E74FF44053BA
:101CE0000393ECE70023099300230D9308930B93D0
:101CF0000C9341F288326946084800F051FF0FB05A
:101D00005DF804FB4FF080730993EDE74FF000732B
:101D10000993E9E74FF040730993E5E70C070024C6
:101D200008B5064B1A680139116141F28832014643
:101D3000184601F094F800B1012008BD0C070024FA
:101D400008B5064B1A680139116141F28832014623
:101D5000184601F01BF800B1012008BD0C07002453
:101D6000104B1B780BB90120704710B504464FF497
:101D70007A70B0FBF3F30C4A1068B0FBF3F000F09C
:101D8000F5F868B90F2C01D901200AE0002221469C
:101D90004FF0FF3000F0B8F8044B1C60002000E06A
:101DA000012010BD0C0000240400002410000024B9
:101DB00010B5032000F08AF801F0C6FD0F498B69C9
:101DC000C3F303230E4AD35C03F01F03D8408B698F
:101DD00003F00F03D35C03F01F0320FA03F3094A57
:101DE0001360094B18600F20FFF7BAFF10B10124F0
:101DF000204610BD0446FFF7C5FBF9E70044025832
:101E000020DC00080000002404000024034B1B78A1
:101E1000034A11680B441360704700BF0C00002494
:101E200058070024014B1868704700BF580700246A
:101E3000014B1868000C70470010005C024A136ADE
:101E400043F001031362704700040058002807DBC9
:101E500000F01F02400901239340024A42F820305B
:101E6000704700BF00E100E0002804DB0901C9B2AF
:101E7000044B1954704700F00F000901C9B2024B1E
:101E80001954704700E400E014ED00E000B500F0E4
:101E90000700C0F1070CBCF1040F28BF4FF0040C81
:101EA000031D062B0FD9C31E4FF0FF3E0EFA0CF098
:101EB00021EA000199400EFA03FE22EA0E0241EAED
:101EC00002005DF804FB0023EEE7000010B50446B5
:101ED000C31E042B0DD80949CB6823F4E0631B040F
:101EE0001B0C240204F4E0642343054A1A43CA602D
:101EF00010BD9121034805F06DF9ECE700ED00E01D
:101F00000000FA0560D8000870B506460C46154674
:101F10000F2A0ED80F2C11D80B4BD8682A46214611
:101F2000C0F30220FFF7B2FF01463046FFF79CFFE7
:101F300070BDA921054805F04DF9EBE7AA2103483A
:101F400005F048F9E8E700BF00ED00E060D80008C0
:101F500010B5041E03DB2046FFF778FF10BDBD213E
:101F6000014805F037F9F6E760D800080138B0F10C
:101F7000807F0BD24FF0E0235861054AF02182F8B0
:101F800023100020986107221A61704701207047D2
:101F900000ED00E070B50446FFF744FF002C00F0B0
:101FA0009181054694F83530DBB2022B06D08023B0
:101FB0006365002384F83430012070BD23688C49A8
:101FC0008C4A934218BF8B4230D0183293422DD0A6
:101FD000183293422AD01832934227D018329342B3
:101FE00024D01832934221D0183293421ED002F5E9
:101FF000567293421AD01832934217D01832934235
:1020000014D01832934211D0183293420ED01832A5
:1020100093420BD01832934208D01832934205D025
:102020001A6822F00E021A60266809E01A6822F087
:102030001E021A602268536923F0800353612668E8
:1020400023686B496B4A934218BF8B4242D01832C7
:1020500093423FD0183293423CD01832934239D049
:102060001832934236D01832934233D0183293420A
:1020700030D002F5567293422CD01832934229D0B8
:102080001832934226D01832934223D0183293420A
:1020900020D0183293421DD0183293421AD01832F1
:1020A000934217D0544A934214D01432934211D021
:1020B000143293420ED0143293420BD01432934216
:1020C00008D01432934205D01432934202D0143215
:1020D000934204D1226E136823F480731360236843
:1020E0004349444A934218BF8B422FD0183293423F
:1020F0002CD01832934229D01832934226D018326D
:10210000934223D01832934220D0183293421DD0EC
:1021100002F55672934219D01832934216D01832F3
:10212000934213D01832934210D0183293420DD0FC
:10213000183293420AD01832934207D01832934291
:1021400004D01A6822F001021A6003E01A6822F033
:1021500001021A60336813F0010F0ED0FFF762FE20
:10216000431B052BF6D920236365032384F8353000
:10217000002384F8343001201FE723681C491D4ADE
:10218000934218BF8B4239D01832934236D018325E
:10219000934233D01832934230D0183293422DD02C
:1021A000183293422AD01832934227D002F5567241
:1021B000934223D01832934220D0183293421DD03C
:1021C000183293421AD01832934217D018329342E1
:1021D00014D01832934211D0183293420ED0A16D10
:1021E000E36D03F01F02012393404B600DE000BF3D
:1021F000100002402800024008540258A16DE36D0F
:1022000003F01F023F2393408B6023682E492F4A1F
:10221000934218BF8B4242D0183293423FD01832BB
:1022200093423CD01832934239D01832934236D080
:102230001832934233D01832934230D002F556729E
:1022400093422CD01832934229D01832934226D090
:102250001832934223D01832934220D0183293423E
:102260001DD0183293421AD01832934217D0184A10
:10227000934214D01432934211D0143293420ED0B0
:10228000143293420BD01432934208D0143293424A
:1022900005D01432934202D0143293420BD1636EB4
:1022A000A26E5A60E36E33B11A6822F480721A602B
:1022B000236F626F5A60012384F83530002084F860
:1022C00034007AE6012078E610000240280002403F
:1022D00008540258002800F0288108B5024690F8FA
:1022E0003530DBB2022B03D080234365012008BDCB
:1022F0000368904890498B4218BF83420CBF01206D
:10230000002065D018318B4262D018318B425FD0EB
:1023100018318B425CD018318B4259D018318B4226
:1023200056D018318B4253D001F556718B424FD0A5
:1023300018318B424CD018318B4249D018318B4226
:1023400046D018318B4243D018318B4240D01831DF
:102350008B423DD018318B423AD0196821F00E01E2
:1023600019601368734874498B4218BF83426AD05E
:1023700072498B4267D018318B4264D018318B423E
:1023800061D018318B425ED018318B425BD018314E
:102390008B4258D001F556718B4254D018318B4284
:1023A00051D018318B424ED018318B424BD018315E
:1023B0008B4248D018318B4245D018318B4242D0E5
:1023C00018318B423FD0196821F0010119603EE0BD
:1023D000042182F8351080BB584A93422DD0183220
:1023E00093422AD01832934227D01832934224D0F5
:1023F0001832934221D0183293421ED002F5567201
:1024000093421AD01832934217D01832934214D004
:102410001832934211D0183293420ED018329342A0
:102420000BD01832934208D01832934205D01A6864
:1024300022F001021A60002059E71A6822F0010216
:102440001A60002053E7196821F001011960136830
:10245000384839498B4218BF834242D018318B42E9
:102460003FD018318B423CD018318B4239D01831D3
:102470008B4236D018318B4233D018318B4230D05A
:1024800001F556718B422CD018318B4229D018316E
:102490008B4226D018318B4223D018318B4220D06A
:1024A00018318B421DD018318B421AD018318B4213
:1024B00017D023498B4214D014318B4211D01431E0
:1024C0008B420ED014318B420BD014318B4208D08A
:1024D00014318B4205D014318B4202D014318B421F
:1024E00017D1116E0B6823F480730B60906DD36D60
:1024F00003F01F0101238B404360536E916E5960BE
:10250000D36E33B1196821F480711960136F516F64
:102510005960012382F83530002382F83430136D7E
:102520002BB1104698470020E1E6012070470020BB
:10253000DDE600BF100002402800024040000240DB
:10254000085402582DE9F04383B080460C466D4A8A
:102550006D4B904218BF984214BF4FF001094FF0E5
:1025600000092BD003F50063C31A18BF012302F53D
:102570000062904222D00BB3644BC31A18BF0123F0
:1025800002F50062904219D0C3B1614BC31A18BF63
:10259000012302F50062904210D07BB15D4BC31A5B
:1025A00018BF012302F50062904207D033B15A4BA5
:1025B000984203D0B321594804F00CFE23689AB224
:1025C00012B1B3F5803F03D3B421544804F002FEA6
:1025D0006368112B18BF012B20D9B3F5041F1DD040
:1025E0000FD8B3F5881F19D007D8032B02D8022BB8
:1025F00014D20FE0122B11D00CE0B3F5901F0DD0C8
:1026000008E0B3F5441F09D0B3F5481F06D0B3F571
:10261000081F03D0B521414804F0DCFD0025C1E0CE
:10262000E368032B17D8D8F80820690003238B40F0
:1026300022EA0302E3688B401343C8F80830D8F855
:10264000042022EA07026368C3F30013AB4013437C
:10265000C8F80430B6E0C421304804F0BBFDE2E71E
:10266000D6212E4804F0B6FDB5E0B9F1000F2DD00B
:102670002B4BB8EB030318BF01232A4A904525D002
:1026800023B3224BB8EB030318BF012302F500620A
:1026900090451BD0D3B11E4BB8EB030318BF0123E9
:1026A00002F50062904511D083B11A4BB8EB0303D9
:1026B00018BF012302F50062904507D033B1164BD5
:1026C000984503D0E321154804F084FD23690F2BBE
:1026D00010D8EA08083258F8220005F007018900EE
:1026E0000F238B4020EA030023698B40034348F803
:1026F000223082E0E421094804F06CFDE9E7092377
:1027000013E000BF000002580004025800140258F1
:10271000001C02580024025800280258BCD80008A7
:10272000000C02580008025800238B400343023279
:10273000664941F822304FF0B0431A68F34322EA69
:102740000601606810F4801F01D046EA02014FF0D4
:10275000B0421160526803EA0201606810F4001F81
:1027600001D046EA02014FF0B0425160D2F8842015
:1027700003EA0201606810F4003F01D046EA02015A
:102780004FF0B042C2F88410D2F880201340616844
:1027900011F4803F01D046EA02034FF0B042C2F884
:1027A00080300135266836FA05F200F08C8001276A
:1027B000AF403E40F5D0636803F00303013B012BBB
:1027C0007FF62EAF636803F00303032B0FD0A368DB
:1027D000022B3FF645AFD8F80C20690003238B404D
:1027E00022EA0302A3688B401343C8F80C306368E5
:1027F00003F00303022B3FF438AFD8F80020690040
:1028000003238B4022EA0302636803F003038B4037
:102810001343C8F80030636813F4403FC1D02C4B19
:10282000D3F8F42042F00202C3F8F420D3F8F430D5
:1028300003F002030193019BAA08911C234B53F858
:10284000210005F0030189000F238B4020EA0300DB
:10285000204B98453FF468AF03F58063984522D03C
:1028600003F58063984520D003F5806398451ED01A
:1028700003F5806398451CD003F5806398451AD012
:1028800003F58063984518D003F58063984516D00A
:1028900003F58063984514D003F5806398453FF4B1
:1028A0002EAF0A2341E701233FE702233DE703233D
:1028B0003BE7042339E7052337E7062335E70723FA
:1028C00033E7082331E703B0BDE8F0830004005884
:1028D000004402580000025838B504460D4621B1A4
:1028E00023691D4207D0012038BD4FF4C57103484C
:1028F00004F070FCF4E70020F6E700BFBCD8000845
:1029000070B5054614460E4621B1012C08D86CB1AD
:10291000AE6170BD4FF4D571064804F05BFCF4E77E
:1029200040F2AB11034804F055FCF0E73604AE6109
:10293000EFE700BFBCD80008024AD36843F08073B9
:10294000D3607047004802582DE9F84305460F460A
:1029500016469946DDF820802C68A4683C4214BFD6
:102960004FF0010C4FF0000CB44514D0B8F1FF3F0C
:10297000F2D0FFF757FAA0EB0900404502D8B8F1B2
:10298000000FE9D1042385F841306B6C43F001035B
:102990006B64012000E00020BDE8F883F8B505462F
:1029A0000C461646002A18BFB2F1806F08D0B2F16B
:1029B000406318BF0123B2F1006F01D0002B32D168
:1029C000636A33B1B6F1406F03D0A36A2A68013B52
:1029D0001361A269002A74D0206A002840D02B68B5
:1029E000A268DA61E26922B3E36A216B0B43616B8F
:1029F0000B43616A0B43616943EA814321690B43DD
:102A0000216A0B43E1680B431343A2691343226815
:102A100013432A6833435361B6F1406F1FD02B68CC
:102A200062689A611BE040F6D1115C4804F0D2FB69
:102A3000C6E7E36A216B0B43616B0B43616A0B438F
:102A4000616943EA814321690B43216A0B431343C4
:102A5000A2691343226813432A6833435361F8BDC4
:102A6000E169D1B1E36A276B3B43676B3B43676A1C
:102A70003B43676943EA87430343E06803430B43EF
:102A80001343226813432A6833435361B6F1406FFE
:102A9000E5D02B6862689A61E1E7E36A276B3B4304
:102AA000676B3B43676A3B43676943EA8743184365
:102AB00041EA00031343226813432A6833435361F6
:102AC000CDE7216A002936D02B68A268DA61E26975
:102AD000E2B1E36A216B0B43616B0B43616A0B4309
:102AE000616943EA814321690B43216A0B43E16831
:102AF0000B431343A26913432A6833435361B6F16E
:102B0000406FACD02B6862689A61A8E7E36A216BDA
:102B10000B43616B0B43616A0B43616943EA814379
:102B200021690B43216A0B431A43A3691A432B689B
:102B300032435A6193E7E069C8B1E36A276B3B43CC
:102B4000676B3B43676A3B43676943EA87430B43D1
:102B5000E1680B43034313432A6833435361B6F1DF
:102B6000406F3FF47CAF2B6862689A6177E7D4F8D6
:102B700024C0BCF1000F3FF472AFE36A276B3B4304
:102B8000676B3B434CEA0307636947EA8347394372
:102B9000084302432B6832435A6160E714D90008A6
:102BA0002DE9F04182B005460C461746FFF73AF989
:102BB0000646A369002B18BFB3F5807F05D0B3F597
:102BC000007F02D0B3F5407F6FD1A36913B12368B2
:102BD000FF2B70D8E369002B18BFB3F5806F05D0C9
:102BE000B3F5006F02D0B3F5406F6AD1E3695BB112
:102BF000E368002B18BFB3F5805F05D0B3F5005F25
:102C000002D0B3F5405F62D1216A002918BFB1F547
:102C1000804F05D0B1F5004F02D0B1F5404F5CD1E7
:102C2000236A5BB12369002B18BFB3F5803F05D041
:102C3000B3F5003F02D0B3F5403F54D163691F2B79
:102C400057D8616A002918BFB1F1807F05D0B1F172
:102C5000007F02D0B1F1407F51D1E36A002B18BF51
:102C6000B3F1004F51D1236B002B18BFB3F1804F4C
:102C700051D1636B002B18BFB3F1805F51D195F830
:102C80004010C9B201297CD0012385F8403095F865
:102C90004130DBB2012B4AD04FF00208002385F807
:102CA0004030404602B0BDE8F08140F2163136486F
:102CB00004F090FA89E740F21931334804F08AFAB7
:102CC00088E74FF44771304804F084FA8EE740F209
:102CD0001F312D4804F07EFA96E740F222312A484F
:102CE00004F078FA9CE740F22531274804F072FAA4
:102CF000A4E74FF44A71244804F06CFAA1E740F2CB
:102D00002931214804F066FAA7E740F22B311E482A
:102D100004F060FAA7E74FF44B711B4804F05AFA2D
:102D2000A7E740F22D31184804F054FAA7E7002233
:102D30006A64022385F841300097334620212846F3
:102D4000FFF702FE80460028A8D10022214628462F
:102D5000FFF724FE636A1BB1012385F841309DE72C
:102D600000973346012202212846FFF7EDFD8046F9
:102D7000002893D12B680222DA60012385F84130C4
:102D80008CE74FF002088CE714D900082DE9F043D6
:102D900083B0044689461746FFF744F8D4F800800C
:102DA00094F84030DBB2012B57D00646012384F85B
:102DB000403094F84150EDB29D4207D002250023E7
:102DC00084F84030284603B0BDE8F08300236364F4
:102DD000B9F1000F3CD0122384F84130D8F81030FC
:102DE0000133E362D8F810300133A362C4F82490B1
:102DF000D8F8143023F04063C8F814300025E36A93
:102E00009BB100973346012204212046FFF79CFD29
:102E1000054650B9636A1B7888F82030616A013131
:102E20006162E16A0139E162E9E71DB1012384F8D9
:102E30004130C4E700973346012202212046FFF7C4
:102E400083FD05460028F1D123680222DA60EDE710
:102E5000636C43F008036364B1E70225B2E72DE930
:102E6000F04383B0044689461746FEF7DBFFD4F8EB
:102E70000080D8F8182094F84030DBB2012B5BD0EA
:102E80000646012384F8403094F84150EDB29D424B
:102E900007D00225002384F84030284603B0BDE85F
:102EA000F08300236364B9F1000F40D0222384F83B
:102EB0004130D8F810300133A363D8F81030013313
:102EC0006363C4F83090D8F8143023F0406343F0C3
:102ED0008063C8F8143023689A610025A36B9BB106
:102EE00000973346012206212046FFF72DFD0546B7
:102EF00050B9236B98F820201A70216B013121639F
:102F0000A16B0139A163E9E71DB1012384F84130C8
:102F1000C0E700973346012202212046FFF714FD47
:102F200005460028F1D123680222DA60EDE7636CE0
:102F300043F008036364ADE70225AEE781647047A0
:102F400030B583B00446FEF76DFF002C00F0B6806C
:102F5000054622685A4B9A4204D04FF49F71594853
:102F600004F038F96368FF2B6FD8A368013B1F2B6F
:102F700071D8E368002B18BF102B72D123691F2B67
:102F800075D86369002B18BFB3F5807F11D0B3F5F6
:102F9000007F0ED0B3F5407F0BD0B3F5806F08D023
:102FA000B3F5A06F05D0B3F5C06F02D0B3F5E06FF5
:102FB00063D1A369012B66D8236A402B18BF002B6D
:102FC00067D1236A402B04D0E369002B18BF802B04
:102FD00065D194F84130002B67D021680A6822F44B
:102FE000F852A368013B42EA03220A60A36C0093F3
:102FF0002B46002220212046FFF7A6FC18BB2168A3
:103000000B68314A1A406568E36843EA0563E5697D
:103010002B43256A2B431A430A6021684A682B4BCD
:1030200013402569626942EA0542A5692A431343B0
:103030004B602268136843F001031360002363644C
:10304000012384F8413003B030BD40F23F111D48E8
:1030500004F0C0F889E74FF4A0711A4804F0BAF8F8
:1030600087E740F24111174804F0B4F886E74FF4BF
:10307000A171144804F0AEF883E740F243111148FF
:1030800004F0A8F895E74FF4A2710E4804F0A2F8F6
:1030900092E740F245110B4804F09CF891E740F2AA
:1030A0004911084804F096F893E72046FEF756FDCC
:1030B00041F288312046FFF741FF8EE70120C2E749
:1030C0000050005214D900082FFFFF00FEF8E0FF67
:1030D000002800F01A8438B50446036813B113F0D1
:1030E0003F0F25D0236813F0010F3AD06368002BFF
:1030F00018BFB3F5803F02D0B3F5A02F1ED1A04A70
:10310000136903F03803926A102B21D0182B1BD0BF
:103110006368B3F5803F57D0002B6BD1984B1A688A
:1031200022F480321A601A6822F480221A6050E079
:1031300040F2A111934804F04DF8D3E74FF4D37156
:10314000904804F047F8DAE702F00302022ADFD1E0
:103150008B4B1B6813F4003F03D06368002B00F017
:10316000D683236813F0020F00F0B980E368092BBF
:1031700018BF012B03D9112B01D0192B60D1236962
:103180007F2B63D87E4A1369926A13F0380366D0A6
:10319000182B61D0E368002B00F0F68078490A68AC
:1031A00022F0190213430B60FEF73CFE0546744BF8
:1031B0001B6813F0040F40F0C180FEF733FE401B84
:1031C0000228F4D9032068E06D4A136843F4803381
:1031D000136063682BB3FEF725FE0546684B1B683A
:1031E00013F4003FBDD1FEF71DFE401B6428F5D946
:1031F000032052E0B3F5A02F09D0614B1A6822F4E6
:1032000080321A601A6822F480221A60E1E75C4B6F
:103210001A6842F480221A601A6842F480321A60F6
:10322000D7E7FEF7FFFD0546554B1B6813F4003F3B
:1032300097D0FEF7F7FD401B6428F5D903202CE05A
:103240004FF4ED714F4803F0C5FF98E740F2DB11F2
:103250004C4803F0BFFF95E712F0030F9AD1484B9B
:103260001B6813F0040F03D0E368002B00F05183B8
:10327000434A136823F01903E1680B431360FEF718
:10328000D1FD05463E4B1B6813F0040F06D1FEF737
:10329000C9FD401B0228F5D9032038BDFEF7C8FD43
:1032A00041F20303984212D82269402A07D03449D8
:1032B0004B6823F47C3343EA02334B600FE0304A1F
:1032C000536823F47C3343F40033536007E02C4A03
:1032D000536823F0FE43216943EA01635360236886
:1032E00013F0100F00F09E80E369002B18BF802BB5
:1032F0005ED1236A3F2B61D8214A136903F038035A
:10330000926A082B64D0182B5ED0E369002B00F082
:10331000C9801B4A136843F080031360FEF782FDE7
:103320000546174B1B6813F4807F40F09980FEF729
:1033300079FD401B0228F4D90320AEE7FEF778FDA3
:1033400041F20303984212D82269402A07D00C495F
:103350004B6823F47C3343EA02334B60BFE7084AEF
:10336000536823F47C3343F400335360B7E7044AD3
:10337000536823F0FE43216943EA01635360AEE7DB
:10338000004402586CD900089D4A136823F00103D9
:103390001360FEF747FD0546994B1B6813F0040FB9
:1033A0009DD0FEF73FFD401B0228F5D9032074E7AE
:1033B00040F22B21934803F00DFF9AE74FF40B7175
:1033C000904803F007FF97E702F00302012A9CD11F
:1033D0008B4B1B6813F4807F03D0E369802B40F094
:1033E0009A82FEF725FD41F20303984212D8226A21
:1033F000202A07D082494B6823F0F84343EA8263CE
:103400004B600FE07E4A536823F0F84343F080435B
:10341000536007E07A4AD36823F07C53216A43EA79
:103420000163D360236813F0080F69D06369012B2F
:103430004CD86369002B4FD0714A536F43F001039E
:103440005367FEF7EFFC05466D4B5B6F13F0020F01
:1034500056D1FEF7E7FC401B0228F5D903201CE7F4
:10346000FEF7E6FC41F20303984212D8226A202AB2
:1034700007D063494B6823F0F84343EA82634B600B
:10348000D0E75F4A536823F0F84343F0804353602A
:10349000C8E75B4AD36823F07C53216A43EA01639F
:1034A000D360BFE7564A136823F080031360FEF72A
:1034B000B9FC0546524B1B6813F4807FB2D0FEF76F
:1034C000B1FC401B0228F5D90320E6E640F26D214D
:1034D0004C4803F07FFEACE7494A536F23F00103E9
:1034E0005367FEF79FFC0546454B5B6F13F0020FD9
:1034F00006D0FEF797FC401B0228F5D90320CCE646
:10350000236813F0200F32D0A369012B15D8A369CB
:10351000CBB13B4A136843F480531360FEF782FC3F
:103520000546374B1B6813F4005F20D1FEF77AFC89
:10353000401B0228F5D90320AFE64FF4267131482D
:1035400003F048FEE3E72E4A136823F48053136028
:10355000FEF768FC05462A4B1B6813F4005F06D093
:10356000FEF760FC401B0228F5D9032095E623688E
:1035700013F0040F71D0A368052B18BF012B13D8CB
:10358000214A136843F480731360FEF74BFC054631
:103590001D4B1B6813F4807F0CD1FEF743FC401BCE
:1035A0006428F5D9032078E640F2C221154803F0DB
:1035B00011FEE5E7A368012B0AD03BBB104B1A6F45
:1035C00022F001021A671A6F22F004021A6704E05F
:1035D0000B4A136F43F001031367A36863B3FEF74D
:1035E00021FC0546064B1B6F13F0020F35D1FEF789
:1035F00019FC401B41F288339842F3D903204CE672
:10360000004402586CD9000800480258052B09D024
:10361000924B1A6F22F001021A671A6F22F004020D
:103620001A67DAE78D4B1A6F42F004021A671A6FB5
:1036300042F001021A67D0E7FEF7F4FB0546874B1C
:103640001B6F13F0020F08D0FEF7ECFB401B41F29A
:1036500088339842F3D903201FE6636A022B4FD8C0
:10366000636A002B00F059817C4A126902F038022B
:10367000182A00F0F980022B40F0DA80A36A032BAD
:1036800018BF012B01D9022B40D1236C002B18BF8E
:10369000042B03D0082B01D00C2B3DD1636C002BE5
:1036A00018BF022B3ED1E36A013B3E2B40D8236B6F
:1036B000043BB3F5FE7F41D8636B013B7F2B43D8BE
:1036C000A36B013B7F2B45D8E36B013B7F2B47D896
:1036D000A36CB3F5005F49D2604A136823F080738E
:1036E0001360FEF79FFB05465C4B1B6813F0007FE1
:1036F00042D0FEF797FB401B0228F5D90320CCE50A
:103700004FF43D71564803F065FDA9E740F2FD21F5
:10371000534803F05FFDB8E740F2FE21504803F044
:1037200059FDBBE740F2FF214D4803F053FDBAE7D6
:103730004FF440714A4803F04DFDB8E740F20131C3
:10374000474803F047FDB7E740F20231444803F031
:1037500041FDB5E740F20331414803F03BFDB3E7DB
:103760004FF441713E4803F035FDB1E740F20531B9
:103770003B4803F02FFDAFE7384B996A394A0A40BE
:10378000A16AE06A41EA00110A439A62226B013A97
:10379000C2F30802616B0139490289B20A43A16B85
:1037A0000139090401F4FE010A43E16B01390906FC
:1037B00001F0FE410A431A63DA6A22F00102DA627A
:1037C0005A6B6FF3CF02A16C42EAC1025A63DA6A04
:1037D00022F00C02216C0A43DA62DA6A22F0020259
:1037E000616C0A43DA62DA6A42F48032DA62DA6AD7
:1037F00042F40032DA62DA6A42F48022DA62DA6A89
:1038000042F00102DA621A6842F080721A60FEF732
:1038100009FB0446114B1B6813F0007F06D1FEF72D
:1038200001FB001B0228F5D9032036E5002034E512
:103830000A4A136823F080731360FEF7F3FA044614
:10384000064B1B6813F0007F06D0FEF7EBFA001B57
:103850000228F5D9032020E500201EE50044025887
:103860006CD900080CFCFFFF354A916A106B012BE4
:1038700055D001F00303A26A934252D1C1F305115E
:10388000E36A99424FD1C0F30802236B013B9A428D
:103890004BD1C0F34622636B013B9A4247D1C0F340
:1038A0000642A36B013B9A4243D1C0F30660E36B2F
:1038B000013B98423FD1224B5B6BC3F3CC03A26C1C
:1038C0009A423AD0B2F5005F19D21D4AD36A23F06A
:1038D0000103D362FEF7A6FA0546FEF7A3FAA84253
:1038E000FBD0174A536B6FF3CF03A16C43EAC103BC
:1038F0005363D36A43F00103D3620020CDE44FF455
:103900005B71104803F066FCDFE70120704701207F
:10391000C3E40120C1E40120BFE40020BDE4012094
:10392000BBE40120B9E40120B7E40120B5E40120A3
:10393000B3E40120B1E40120AFE40020ADE400BF16
:10394000004402586CD90008F8B5814B1B6903F09C
:103950003803102B00F0F480182B0FD0002B40F010
:10396000F2807B4B1B6813F0200F00F0EE80784B49
:103970001B68C3F3C103774CDC40E2E0744B9D6AE3
:1039800005F003059C6AC4F30514D86A00F0010031
:103990005B6BC3F3CC0303FB00F0FCF747FD06466B
:1039A000002C00F0CE80012D56D0022D00F0848036
:1039B000002D40F0A380664B1B6813F0200F29D028
:1039C000634F3B68C3F3C1036248D840FCF72EFD48
:1039D00005462046FCF72AFD01462846FCF732FE44
:1039E0000446386BC0F30800FCF720FD05464FF095
:1039F00064513046FCF772FD01462846FCF766FC30
:103A00004FF07E51FCF762FC01462046FCF766FD54
:103A1000044642E02046FCF709FD01464E48FCF70B
:103A200011FE04464A4B186BC0F30800FCF7FEFC7D
:103A300005464FF064513046FCF750FD01462846DC
:103A4000FCF744FC4FF07E51FCF740FC0146204659
:103A5000FCF744FD044620E02046FCF7E7FC014665
:103A60003E48FCF7EFFD0446394B186BC0F30800E5
:103A7000FCF7DCFC05464FF064513046FCF72EFDA8
:103A800001462846FCF722FC4FF07E51FCF71EFC55
:103A900001462046FCF722FD04462D4B1B6BC3F369
:103AA0004623581CFCF7C2FC01462046FCF7CAFD21
:103AB000FCF764FE044644E02046FCF7B7FC0146F0
:103AC0002748FCF7BFFD0446214B186BC0F30800E4
:103AD000FCF7ACFC05464FF064513046FCF7FEFCA9
:103AE00001462846FCF7F2FB4FF07E51FCF7EEFB57
:103AF00001462046FCF7F2FC0446CEE72046FCF7E0
:103B000095FC01461548FCF79DFD0446104B186BCB
:103B1000C0F30800FCF78AFC05464FF064513046BC
:103B2000FCF7DCFC01462846FCF7D0FB4FF07E5149
:103B3000FCF7CCFB01462046FCF7D0FC0446ACE782
:103B4000084C2046F8BD084CFBE7024CF9E700BFE3
:103B5000004402580090D0030024744C0024744A9E
:103B60000024F44A00127A0000093D00002800F009
:103B70002A8270B50D4604460368013B3E2B00F2D5
:103B8000DD800F2D00F2E0809E4B1B6803F00F03D9
:103B9000AB420BD29B4A136823F00F032B431360F5
:103BA000136803F00F03AB4240F00F82236813F059
:103BB000040F18D02269944B9B6903F070039A425A
:103BC00011D9002A18BF402A06D0502A04D0602AF2
:103BD00002D0702A40F0BE808B4A936923F07003B4
:103BE00021690B439361236813F0080F18D06269B1
:103BF000854BDB6903F070039A4211D9002A18BF84
:103C0000402A06D0502A04D0602A02D0702A40F000
:103C1000A7807D4AD36923F0700361690B43D361A8
:103C2000236813F0100F1CD0A269774BDB6903F4F3
:103C3000E0639A4215D9002A18BFB2F5806F09D007
:103C4000B2F5A06F06D0B2F5C06F03D0B2F5E06F49
:103C500040F08C806C4AD36923F4E063A1690B4384
:103C6000D361236813F0200F17D0E269664B1B6AFB
:103C700003F070039A4210D9002A18BF402A05D0D9
:103C8000502A03D0602A01D0702A75D15E4A136A87
:103C900023F07003E1690B431362236813F0020FF2
:103CA00014D0E268584B9B6903F00F039A420DD978
:103CB000002A18BF082A02D0093A062A62D8524AB6
:103CC000936923F00F03E1680B439361236813F0BA
:103CD000010F00F09D80A368002B18BFB3F5006FA3
:103CE00014D0B3F5106F11D0B3F5206F0ED0B3F52B
:103CF000306F0BD0B3F5406F08D0B3F5506F05D0DF
:103D0000B3F5606F02D0B3F5706F41D16368032BD8
:103D100044D83D4A936923F47063A1680B439361CF
:103D20006368022B40D0032B5DD0012B62D0364A52
:103D3000126812F0040F3CD1012025E140F2A731B6
:103D4000324803F047FA1CE74FF46A712F4803F03A
:103D500041FA19E74FF471712C4803F03BFA3BE745
:103D600040F2D631294803F035FA52E740F2E73104
:103D7000264803F02FFA6DE740F2F931234803F0AB
:103D800029FA83E740F20C41204803F023FA96E732
:103D900040F21C411D4803F01DFAB7E740F21D41F7
:103DA0001A4803F017FAB4E7126812F4003F00F063
:103DB0000E8115490A6922F0070213430B61FEF7D1
:103DC00031F80646104B1B6903F038036268B3EB09
:103DD000C20F1DD0FEF726F8801B41F288339842AF
:103DE000F0D90320D0E0084A126812F0007FE0D139
:103DF0000120C9E0044A126812F4807FD9D1012061
:103E0000C2E000BF00200052004402586CD90008F4
:103E1000236813F0020F15D0E2686F4B9B6903F023
:103E20000F039A420ED2002A18BF082A03D0093A7B
:103E3000062A00F2AA80684A936923F00F03E1681A
:103E40000B439361654B1B6803F00F03AB420BD927
:103E5000624A136823F00F032B431360136803F0C7
:103E60000F03AB4240F0B580236813F0040F18D065
:103E70002269594B9B6903F070039A4211D2002AC0
:103E800018BF402A06D0502A04D0602A02D0702AD7
:103E900040F08180504A936923F0700321690B43FD
:103EA0009361236813F0080F17D062694A4BDB69EE
:103EB00003F070039A4210D2002A18BF402A05D09E
:103EC000502A03D0602A01D0702A6AD1424AD369AD
:103ED00023F0700361690B43D361236813F0100F63
:103EE0001BD0A2693C4BDB6903F4E0639A4214D215
:103EF000002A18BFB2F5806F08D0B2F5A06F05D0C8
:103F0000B2F5C06F02D0B2F5E06F50D1324AD3693A
:103F100023F4E063A1690B43D361236813F0200FFE
:103F200017D0E2692C4B1B6A03F070039A4210D23F
:103F3000002A18BF402A05D0502A03D0602A01D099
:103F4000702A3AD1244A136A23F07003E1690B43C3
:103F50001362FFF7F9FC20498B69C3F30323204A5E
:103F6000D35C03F01F03D8408B6903F00F03D35CCD
:103F700003F01F0320FA03F31A4A13601A4B186068
:103F80001A4B1868FDF7ECFE70BD40F25E41184810
:103F900003F020F94FE740F27F41154803F01AF98A
:103FA00078E740F29141124803F014F98EE740F2AD
:103FB000A3410F4803F00EF9A8E740F2B5410C48C1
:103FC00003F008F9BEE7012070470120DCE701207B
:103FD000DAE70120D8E700BF004402580020005271
:103FE00020DC00080000002404000024100000244D
:103FF0006CD9000808B5FFF7A7FC0B4A9369C3F317
:1040000003230A49CB5C03F01F0320FA03F39269F0
:1040100002F00F02885C00F01F0023FA00F0044A4F
:104020001060044A136008BD0044025820DC0008F8
:10403000000000240400002408B5FFF7DBFF054B57
:10404000DB69C3F30213044AD35C03F01F03D840B7
:1040500008BD00BF0044025820DC000808B5FFF787
:10406000C9FF054BDB69C3F30223044AD35C03F0A9
:104070001F03D84008BD00BF0044025820DC0008E0
:104080007047000008B5064B5B6E13F4806F00D1DB
:1040900008BDFFF7F5FF024B4FF480629A66F7E721
:1040A0000044025870B504460E460368013B3E2B9F
:1040B0003DD86368043BB3F5FE7F3ED8A368013B5F
:1040C0007F2B40D82369013B7F2B42D8E368013B1B
:1040D0007F2B44D86369002B18BF402B03D0802B63
:1040E00001D0C02B41D1A369002B18BF202B42D196
:1040F000E369B3F5005F44D2574B9B6A03F00303B7
:10410000032B00F0A780544A136823F080631360E8
:10411000FDF788FE0546504B1B6813F0006F36D044
:10412000FDF780FE431B022BF5D9032093E040F6F8
:1041300072614A4803F04EF8BBE740F673614748A6
:1041400003F048F8BAE740F67461444803F042F8D7
:10415000B8E740F67561414803F03CF8B6E740F631
:1041600076613E4803F036F8B4E740F677613B48A5
:1041700003F030F8B7E740F67861384803F02AF8E2
:10418000B6E740F67961354803F024F8B4E7324BDE
:104190009A6A22F47C32216842EA01329A626268A9
:1041A000013AC2F30802A1680139490289B20A43FF
:1041B000E1680139090401F4FE010A43216901396A
:1041C000090601F0FE410A439A63DA6A22F0C0024E
:1041D00061690A43DA62DA6A22F02002A1690A43BD
:1041E000DA62DA6A22F01002DA62DA6B6FF3CF0277
:1041F000E16942EAC102DA63DA6A42F01002DA6285
:10420000C6B91A46DB6A43F40023D362124A136824
:1042100043F080631360FDF705FE04460E4B1B68F8
:1042200013F0006F14D1FDF7FDFD001B0228F5D936
:10423000032010E0012E05D0074AD36A43F400138F
:10424000D362E3E7044AD36A43F48013D362DDE721
:10425000002000E0012070BD00440258C4D90008CD
:1042600070B504460E460368013B3E2B41D8636897
:10427000043BB3F5FE7F42D8A368013B7F2B44D8B3
:104280002369013B7F2B46D8E368013B7F2B48D84D
:104290006369002B18BFB3F5806F05D0B3F5006FCD
:1042A00002D0B3F5406F42D1A369002B18BFB3F51C
:1042B000007F42D1E369B3F5005F44D2574B9B6A5C
:1042C00003F00303032B00F0A780544A136823F084
:1042D00080531360FDF7A6FD0546504B1B6813F095
:1042E000005F36D0FDF79EFD431B022BF5D903205E
:1042F00093E040F6DA614A4802F06CFFB7E740F617
:10430000DB61474802F066FFB6E740F6DC614448EF
:1043100002F060FFB4E740F6DD61414802F05AFF69
:10432000B2E740F6DE613E4802F054FFB0E740F6E7
:10433000DF613B4802F04EFFB6E74FF46E6138484C
:1043400002F048FFB6E740F6E161354802F042FF6F
:10435000B4E7324B9A6A22F07C72216842EA015239
:104360009A626268013AC2F30802A16801394902FF
:1043700089B20A43E1680139090401F4FE010A43E4
:1043800021690139090601F0FE410A431A64DA6A1B
:1043900022F4406261690A43DA62DA6A22F4007246
:1043A000A1690A43DA62DA6A22F48072DA625A6C2C
:1043B0006FF3CF02E16942EAC1025A64DA6A42F459
:1043C0008072DA62C6B91A46DB6A43F48003D362AC
:1043D000124A136843F080531360FDF723FD04462F
:1043E0000E4B1B6813F0005F14D1FDF71BFD001B83
:1043F0000228F5D9032010E0012E05D0074AD36A20
:1044000043F08073D362E3E7044AD36A43F40003C2
:10441000D362DDE7002000E0012070BD00440258B7
:10442000C4D90008F8B50446036813F0006F30D013
:10443000836EB3F5001F26D00ED8ABB1B3F5801F45
:1044400007D102210830FFF72DFE054695B12E4613
:1044500021E0012635461EE0B3F5401F01D10025BD
:1044600008E00126354616E09E4AD36A43F400333D
:10447000D36200259B4A136D23F44013A16E0B43B6
:104480001365002607E002212830FFF7E9FE054604
:10449000DCE700263546236813F4807F14D0A36D33
:1044A000042B31D8DFE803F00322290808008D4AE5
:1044B000D36A43F40033D3624DBB8A4A136D23F0B1
:1044C0000703A16D0B431365236813F4007F38D0F5
:1044D000E36D802B4AD01FD833B3402B19D1002174
:1044E00004F10800FFF7DEFD054622E0002104F19B
:1044F0000800FFF7D7FD0546DEE7002104F128009C
:10450000FFF7AEFE0546D7E701263546DCE72E4627
:10451000DAE70126354614E0C02B0AD0B3F5807FD8
:1045200007D0012635460CE06E4AD36A43F40033C7
:10453000D36215BB6B4A136D23F4E073E16D0B433B
:104540001365236813F4806F33D0D4F8A830B3F523
:10455000800F43D016D8F3B1B3F5001F0FD100215F
:1045600004F10800FFF79EFD054619E0002104F163
:104570002800FFF775FE0546DBE72E46E1E701263A
:10458000354616E0B3F5C00F0AD0B3F5000F07D0DB
:10459000012635460DE0534AD36A43F40033D36213
:1045A0001DBB504A936D23F46003D4F8A8100B434D
:1045B0009365236813F4006F34D0D4F8AC30B3F1B2
:1045C000007F5BD016D8F3B1B3F1807F0FD100210B
:1045D00004F10800FFF766FD054619E0002104F12B
:1045E0002800FFF73DFE0546DAE72E46E1E7012603
:1045F000354617E0B3F1407F0AD0B3F1806F07D0A2
:10460000012635460EE0374AD36A43F40033D362BD
:10461000002D3AD1334A936D23F0E063D4F8AC1007
:104620000B439365236813F0007F13D0E36C202BBA
:1046300035D02FD833B1102B29D12A4AD36A43F46D
:104640000033D36295BB274AD36C23F03003E16C6F
:104650000B43D364236813F4805F4DD0236EB3F50E
:10466000005F41D027D87BB3B3F5805F20D1002114
:1046700004F10800FFF716FD05462AE0002104F1C9
:104680002800FFF7EDFD0546C2E72E46CAE70126E2
:104690003546DFE7302BD5D001263546DAE7022153
:1046A00004F10800FFF7FEFC0546CBE72E46D1E7F4
:1046B0000126354620E0B3F5405F0AD0B3F5804FC0
:1046C00007D00126354617E0064AD36A43F4003383
:1046D000D36285B9034A136D23F4E043216E0B4383
:1046E000136509E000440258002104F12800FFF797
:1046F000B7FD0546EDE72E46236813F4005F17D09B
:10470000636EB3F5003F4FD042D843B1B3F5803F5D
:104710003BD1012104F10800FFF7C4FC0546002D40
:1047200049D1444A136D23F4E023616E0B431365B2
:10473000236813F4804F19D0D4F8B030B3F1005F80
:104740004AD03DD843B1B3F1805F36D1012104F1A5
:104750000800FFF7A7FC0546002D44D1354A936DAC
:1047600023F0E043D4F8B0100B439365236813F4AF
:10477000004F47D0236FB3F1805F36D0B3F1005FB5
:104780004ED0BBB3012635463CE001263546CFE787
:10479000B3F5802FC3D0B3F5A02FC0D0B3F5403F01
:1047A000BDD001263546C3E7012104F12800FFF7FB
:1047B00057FD0546B3E72E46BAE701263546D5E74D
:1047C000B3F1804FC8D0B3F1A04FC5D0B3F1405F73
:1047D000C2D001263546C9E7012104F12800FFF7C0
:1047E0003FFD0546B8E72E46C0E7124AD36A43F4B8
:1047F0000033D362DDB90F4A136D23F04053216FAC
:104800000B431365236813F0807F24D0A36C032B24
:1048100000F29281DFE813F0150010008901150005
:10482000012104F10800FFF73DFC0546E2E72E46B2
:10483000E8E700BF00440258B74AD36A43F40033A4
:10484000D362002D40F07B81B34AD36C23F0030385
:10485000A16C0B43D364236813F4800F00F08D81A7
:10486000D4F8B430B3F5807F18BFB3F5007F00F003
:104870000D81B3F50C5F00F00981B3F54C5F00F0DA
:104880000581B3F5864F00F00181B3F5A64F00F026
:10489000FD80B3F5C64F00F0F980B3F5E64F00F0A8
:1048A000F580B3F5034F00F0F180B3F5134F00F03E
:1048B000ED80B3F5234F00F0E980B3F5334F00F0FE
:1048C000E580B3F5434F00F0E180B3F5534F00F0BE
:1048D000DD80B3F5634F00F0D980B3F5734F00F07E
:1048E000D5808E4A934200F0D18002F580529342E7
:1048F00000F0CC8002F58052934200F0C78002F5B0
:104900008052934200F0C28002F58052934200F040
:10491000BD8002F58052934200F0B88002F58052CB
:10492000934200F0B38002F58052934200F0AE80D3
:1049300002F58052934200F0A98002F58052934222
:1049400000F0A48002F58052934200F09F8002F5AF
:104950008052934200F09A8002F58052934200F018
:10496000958002F58052934200F0908002F58052CB
:10497000934200F08B8002F58052934200F08680D3
:1049800002F58052934200F0818002F580529342FA
:104990007CD002F58052934278D002F58052934247
:1049A00074D002F58052934270D002F58052934247
:1049B0006CD002F58052934268D002F58052934247
:1049C00064D002F58052934260D002F58052934247
:1049D0005CD002F58052934258D002F58052934247
:1049E00054D002F58052934250D002F58052934247
:1049F0004CD002F58052934248D002F58052934247
:104A000044D002F58052934240D002F58052934246
:104A10003CD002F58052934238D002F58052934246
:104A200034D002F58052934230D002F58052934246
:104A30002CD002F58052934228D002F58052934246
:104A400024D002F58052934220D002F58052934246
:104A50001CD002F58052934218D002F58052934246
:104A600014D002F58052934210D002F58052934246
:104A70000CD002F58052934208D002F58052934246
:104A800004D040F27D31264802F0A4FB254A136889
:104A900043F480731360FDF7C5F90746214B1B688B
:104AA00013F4807F05D1FDF7BDF9C01B6428F5D94B
:104AB0000325002D60D1184B1B6FD4F8B420534050
:104AC00013F4407F0CD0144B1A6F22F44072196F0C
:104AD00041F480311967196F21F4803119671A6721
:104AE000D4F8B430B3F5807F2BD0002D63D1D4F847
:104AF000B43003F44072B2F5407F33D0064A1369F4
:104B000023F47C53136104490B6FD4F8B420C2F32F
:104B10000B0213430B6707E0004402580003010037
:104B2000C4D900080048025827E0022104F1080017
:104B3000FFF7B8FA054684E6012635468BE62E4691
:104B400089E6FDF76FF90746444B1B6F13F0020F20
:104B5000CBD1FDF767F9C01B41F288339842F3D9F6
:104B60000325C2E73D48026922F47C523C4901EA30
:104B7000131313430361C6E72E46236813F0010F96
:104B800033D0E36F282B2ED8DFE803F01D2D2D2D19
:104B90002D2D2D2D172D2D2D2D2D2D2D262D2D2D62
:104BA0002D2D2D2D1D2D2D2D2D2D2D2D1D2D2D2D55
:104BB0002D2D2D2D1D002E46DFE7012104F10800CB
:104BC000FFF770FA0546E5B9244A536D23F0380320
:104BD000E16F0B43536508E0012104F12800FFF762
:104BE0003FFB0546EFE701263546236813F0020F29
:104BF00017D0A36F052B2CD8DFE803F00B05240B8F
:104C00000B0B2E46F1E7012104F10800FFF74AFAE9
:104C100005460DBB114A536D23F00703A16F0B43EB
:104C20005365236813F0040F2DD0D4F89430052B6E
:104C300000F2F780DFE813F01C001600EE001C0005
:104C40001C001C00012104F12800FFF709FB0546A8
:104C5000DFE701263546E4E72E46E2E70044025846
:104C6000CFFFFF00012104F10800FFF71BFA054602
:104C7000002D40F0D980BA4A936D23F00703D4F891
:104C800094100B439365236813F0200F1DD0D4F8C4
:104C90009030B3F1005F00F0DB8000F2CA804BB1CE
:104CA000B3F1805F40F0C280002104F10800FFF7FB
:104CB000F9F90546002D40F0D280A94A536D23F042
:104CC000E043D4F890100B435365236813F0400F72
:104CD0001DD0D4F89C30B3F5006F00F0D48000F202
:104CE000C3804BB1B3F5806F40F0BB80002104F16D
:104CF0000800FFF7D7F90546002D40F0CB80984A11
:104D0000936D23F4E053D4F89C100B439365236810
:104D100013F0800F1DD0D4F8A030B3F5804F00F011
:104D2000CD8000F2BC804BB1B3F5005F40F0B480A1
:104D3000002104F10800FFF7B5F90546002D40F009
:104D4000C480874A936D23F46043D4F8A0100B43CA
:104D50009365236813F0080F1AD0D4F88430B3F5A4
:104D6000805F18BFB3F5005F04D01BB1B3F5405F9F
:104D700040F0AD80D4F88430B3F5805F00F0AD80B2
:104D8000774A536D23F44053D4F884100B43536592
:104D9000236813F0100F1AD0D4F89830B3F5807F41
:104DA00018BFB3F5007F04D01BB1B3F5407F40F0CE
:104DB0009E80D4F89830B3F5807F00F09E80684ADA
:104DC000936D23F44073D4F898100B4393652368D4
:104DD00013F4002F00F0A680D4F8A430B3F5803F80
:104DE00000F09580B3F5003F08D0002B40F096808E
:104DF000002104F10800FFF755F90546002D40F0A9
:104E00009080574A936D23F44033D4F8A4100B4399
:104E1000936587E0012104F12800FFF721FA054698
:104E200026E7012635462EE72E462CE70126354695
:104E30004BE7B3F1804F3FF43DAFB3F1A04F3FF4E8
:104E400039AFB3F1405F3FF435AF012635463CE75B
:104E5000022104F12800FFF703FA05462AE72E464F
:104E600033E70126354652E7B3F5805F3FF444AFA0
:104E7000B3F5A05F3FF440AFB3F5406F3FF43CAFF4
:104E80000126354643E7022104F12800FFF7E8F93F
:104E9000054631E72E463AE70126354659E7B3F590
:104EA000004F3FF44BAFB3F5204F3FF447AFB3F59E
:104EB000C04F3FF443AF012635464AE7022104F1D3
:104EC0002800FFF7CDF9054638E72E4641E740F2C6
:104ED0000D51244802F07EF94CE7022104F128002C
:104EE000FFF7BEF900283FF44BAF012648E74FF427
:104EF000A4611C4802F06EF95BE7022104F128006E
:104F0000FFF7AEF900283FF45AAF012657E7022118
:104F100004F12800FFF7A4F905466FE7012635469E
:104F200000E02E46236813F4802F28D0D4F8883070
:104F3000B3F5001F18D0B3F5401F07D0B3F5801F9D
:104F400019D1074AD36A43F40033D362B5B9044A8E
:104F5000536D23F44013D4F888100B4353650EE0CF
:104F600000440258C4D90008012104F12800FFF7C9
:104F700077F90546EAE70126354600E02E46236824
:104F800013F4803F0CD0236D002B18BFB3F5803F86
:104F90001CD1236D03B3B3F5803F2BD001263546DA
:104FA000236813F0005F2ED1236813F4003F46D02E
:104FB000D4F88030B3F5807F31D02DD9B3F5007FA0
:104FC00032D0B3F5407F2FD0012638E040F2865131
:104FD000904802F0FFF8DCE78F4AD36A43F40033CD
:104FE000D36275B98C4AD36C23F48033216D0B43A3
:104FF000D364D5E7022104F10800FFF753F8054612
:10500000EFE72E46CCE7022104F12800FFF728F94C
:105010000028C9D00126C7E733B101260FE07E4A38
:10502000D36A43F40033D36245B97B4A536D23F40A
:105030004073D4F880100B43536500E02E4623687C
:1050400013F4801F0DD0636F002B18BFB3F1004F16
:1050500040F08580704A136D23F00043616F0B436D
:105060001365236813F0805F0ED0D4F8B830002B9E
:1050700018BFB3F5804F78D1674A136923F4804392
:10508000D4F8B8100B431361236813F4001F0CD03D
:10509000E36E002B18BFB3F1807F6CD15E4A136DB5
:1050A00023F08073E16E0B431365236813F0804F88
:1050B00010D0D4F8BC30002B18BFB3F5004F60D12E
:1050C000554B1A6922F400421A611A69D4F8BC10CF
:1050D0000A431A612368002B0FDA636D002B18BF97
:1050E000B3F1805F02D0B3F1005F50D14A4AD36C74
:1050F00023F04053616D0B43D364236813F4000F16
:1051000011D0D4F88C30002B18BFB3F5800F02D02B
:10511000B3F5000F41D1404A536D23F44003D4F856
:105120008C100B435365636813F0010F3BD1636828
:1051300013F0020F40D1636813F0040F45D1636888
:1051400013F0080F4AD1636813F0100F4FD1636852
:1051500013F0200F54D106B101263046F8BD40F2BD
:10516000E5512C4802F036F874E740F2EF51294837
:1051700002F030F880E740F2F951264802F02AF8B0
:105180008CE740F20F61234802F024F898E740F2E0
:105190001961204802F01EF8A8E740F223611D487B
:1051A00002F018F8B7E7002104F10800FEF77AFFD3
:1051B0000028BCD00646BAE7012104F10800FEF73A
:1051C00071FF0028B7D00646B5E7022104F10800B8
:1051D000FEF768FF0028B2D00646B0E7002104F1D0
:1051E0002800FFF73DF80028ADD00646ABE70121C7
:1051F00004F12800FFF734F80028A8D00646A6E7F7
:10520000022104F12800FFF72BF80028A3D0012683
:10521000A3E700BFC4D900080044025808B5FEF750
:10522000E9FE054B1B6AC3F30213044AD35C03F087
:105230001F03D84008BD00BF0044025820DC00080E
:105240002DE9F0410446874B9E6A9D6AC5F30535FA
:10525000D86AC0F30010DB6BC3F3CC0303FB00F090
:10526000FBF7E4F8002D00F0F78006F00306074690
:10527000012E59D0022E00F0AB80002E40F0CA80E3
:10528000784B1B6813F0200F2CD0DFF8D881D8F8AA
:105290000030C3F3C1037448D840FBF7C7F8064693
:1052A0002846FBF7C3F801463046FBF7CBF9054625
:1052B000D8F83800C0F30800FBF7B8F806464FF0FE
:1052C00064513846FBF70AF901463046FAF7FEFF0B
:1052D0004FF07E51FAF7FAFF01462846FBF7FEF839
:1052E000054642E02846FBF7A1F801465F48FBF778
:1052F000A9F905465B4B986BC0F30800FBF796F8DD
:1053000006464FF064513846FBF7E8F80146304650
:10531000FAF7DCFF4FF07E51FAF7D8FF0146284636
:10532000FBF7DCF8054620E02846FBF77FF801464E
:105330004F48FBF787F905464A4B986BC0F30800C6
:10534000FBF774F806464FF064513846FBF7C6F891
:1053500001463046FAF7BAFF4FF07E51FAF7B6FF32
:1053600001462846FBF7BAF805463E4EB06BC0F33F
:105370004620FBF75BF84FF07E51FAF7A7FF014696
:105380002846FBF75FF9FBF7F9F92060B06BC0F333
:105390000640FBF74BF84FF07E51FAF797FF0146B6
:1053A0002846FBF74FF9FBF7E9F96060B06BC0F3F3
:1053B0000660FBF73BF84FF07E51FAF787FF014696
:1053C0002846FBF73FF9FBF7D9F9A060BDE8F0816B
:1053D0002846FBF72BF801462648FBF733F905462C
:1053E000204B986BC0F30800FBF720F806464FF0FF
:1053F00064513846FBF772F801463046FAF766FF0B
:105400004FF07E51FAF762FF01462846FBF766F837
:105410000546AAE72846FBF709F801461448FBF7BA
:1054200011F905460F4B986BC0F30800FAF7FEFF21
:1054300006464FF064513846FBF750F801463046B7
:10544000FAF744FF4FF07E51FAF740FF0146284635
:10545000FBF744F8054688E7002323606360A360F8
:10546000B4E700BF004402580090D0030024744CFD
:105470000024744A0024F44A2DE9F0410446874B85
:105480009E6A9D6AC5F30555D86AC0F300205B6C1F
:10549000C3F3CC0303FB00F0FAF7C8FF002D00F0C4
:1054A000F78006F003060746012E59D0022E00F0C1
:1054B000AB80002E40F0CA80784B1B6813F0200FA1
:1054C0002CD0DFF8D881D8F80030C3F3C10374487A
:1054D000D840FAF7ABFF06462846FAF7A7FF014681
:1054E0003046FBF7AFF80546D8F84000C0F3080097
:1054F000FAF79CFF06464FF064513846FAF7EEFF84
:1055000001463046FAF7E2FE4FF07E51FAF7DEFE32
:1055100001462846FAF7E2FF054642E02846FAF738
:1055200085FF01465F48FBF78DF805465B4B186C1D
:10553000C0F30800FAF77AFF06464FF06451384688
:10554000FAF7CCFF01463046FAF7C0FE4FF07E5125
:10555000FAF7BCFE01462846FAF7C0FF054620E0F0
:105560002846FAF763FF01464F48FBF76BF80546FC
:105570004A4B186CC0F30800FAF758FF06464FF084
:1055800064513846FAF7AAFF01463046FAF79EFE04
:105590004FF07E51FAF79AFE01462846FAF79EFF31
:1055A00005463E4E306CC0F34620FAF73FFF4FF001
:1055B0007E51FAF78BFE01462846FBF743F8FBF7CE
:1055C000DDF82060306CC0F30640FAF72FFF4FF093
:1055D0007E51FAF77BFE01462846FBF733F8FBF7CE
:1055E000CDF86060306CC0F30660FAF71FFF4FF033
:1055F0007E51FAF76BFE01462846FBF723F8FBF7CE
:10560000BDF8A060BDE8F0812846FAF70FFF01461B
:105610002648FBF717F80546204B186CC0F3080026
:10562000FAF704FF06464FF064513846FAF756FF82
:1056300001463046FAF74AFE4FF07E51FAF746FE31
:1056400001462846FAF74AFF0546AAE72846FAF730
:10565000EDFE01461448FAF7F5FF05460F4B186CAE
:10566000C0F30800FAF7E2FE06464FF064513846F0
:10567000FAF734FF01463046FAF728FE4FF07E5124
:10568000FAF724FE01462846FAF728FF054688E780
:10569000002323606360A360B4E700BF00440258A6
:1056A0000090D0030024744C0024744A0024F44A6F
:1056B000026852E8003F23F4907342E80031002969
:1056C000F6D1026802F1080353E8001F0D4B0B40AE
:1056D000083242E800310029F3D1C36E012B06D015
:1056E0002023C0F88C300023C366436770470268EC
:1056F00052E8003F23F0100342E800310029F6D1C0
:10570000EEE700BFFEFFFFEF704708B5026852E802
:10571000003F23F0400342E800310029F6D1202366
:10572000C0F8883000238367FFF7EEFF08BD70479D
:1057300008B5806B0023A0F85E30A0F85630FFF764
:10574000F6FF08BD7047000070B504460268D369D3
:105750001068916840F60F0C13EA0C0F0DD113F08E
:10576000200F10D010F0200F02D111F0805F0AD06E
:10577000636F93B3204698472FE0884D0D402DD19D
:10578000874E30422AD1E56E012D00F0C08013F41F
:10579000801F03D011F4800F40F0948113F0800F2C
:1057A00007D010F0800F40F0948111F4000F40F00A
:1057B000908113F0400F03D010F0400F40F0908123
:1057C00013F4000F03D010F0804F40F08D8113F0E0
:1057D000807F02D00028C0F28B8170BD13F0010FD2
:1057E00009D010F4807F06D001261662D4F89020EC
:1057F0003243C4F8902013F0020F0BD011F0010FC8
:1058000008D0226802261662D4F8902042F00402E2
:10581000C4F8902013F0040F0BD011F0010F08D042
:10582000226804261662D4F8902042F00202C4F8DE
:10583000902013F0080F0BD010F0200F00D13DB1D5
:10584000226808251562D4F890202A43C4F89020D5
:1058500013F4006F0CD010F0806F09D022684FF461
:1058600000651562D4F8902042F02002C4F8902020
:10587000D4F89020002AB0D013F0200F09D010F0F7
:10588000200F02D111F0805F03D0636F0BB120466F
:105890009847D4F8902023689B6813F0400F02D1FA
:1058A00012F0280F2CD02046FFF702FF23689B68D8
:1058B00013F0400F20D0226802F1080353E8003FA4
:1058C00023F04003083242E800310029F3D1D4F834
:1058D00080306BB1334A1A65D4F88000FCF7FAFCCB
:1058E00000283FF47AAFD4F88000036D984774E73E
:1058F0002046FFF71CFF70E72046FFF718FF6CE714
:105900002046FFF714FF0023C4F8903065E713F03A
:10591000100F3FF43CAF10F0100F3FF438AF1023DE
:10592000136223689B6813F0400F00F09180D4F855
:10593000802013681C481D498B4218BF834237D012
:1059400018318B4234D018318B4231D018318B4210
:105950002ED018318B422BD018318B4228D01831E1
:105960008B4225D001F556718B4221D018318B42E4
:105970001ED018318B421BD018318B4218D01831F1
:105980008B4215D018318B4212D018318B420FD078
:1059900018318B420CD05B689BB20BE00100001009
:1059A0002001000431570008100002402800024086
:1059B0005B689BB2002B3FF410AFB4F85C109942C7
:1059C0007FF60BAFA4F85E30D369B3F5807F32D099
:1059D000226852E8003F23F4807342E80031002936
:1059E000F6D1226802F1080353E8003F23F00103D7
:1059F000083242E800310029F3D1226802F108039D
:105A000053E8003F23F04003083242E80031002908
:105A1000F3D12023C4F88C300023E366226852E8D7
:105A2000003F23F0100342E800310029F6D1D4F8FA
:105A30008000FCF7AFFA02232367B4F85C10B4F8D7
:105A40005E309BB2C91A89B22046FFF77BFEC4E6DE
:105A5000B4F85C10B4F85E309BB2C91A89B2B4F8DD
:105A60005E309BB2002B3FF4B8AE00293FF4B5AED8
:105A7000226852E8003F23F4907342E80030002887
:105A8000F6D1226802F1080353E8000F1A4B0340D5
:105A9000083242E800300028F3D12023C4F88C30CB
:105AA0000023E3666367226852E8003F23F0100397
:105AB00042E800300028F6D1022323672046FFF792
:105AC00041FE8AE64FF480131362204601F052FA39
:105AD00083E6A36F002B3FF480AE204698477CE618
:105AE0002046FFF712FE78E6204601F045FA74E6FC
:105AF000204601F040FA70E6FEFFFFEF08B5B0F86F
